:020000040800F2
:1000000000000220B9020008C1020008C502000871
:10001000390300083D0300088503000800000000C4
:10002000000000000000000000000000CD030008F8
:10003000D103000800000000D5030008491A000899
:10004000E9030008E9030008E9030008E9030008E0
:10005000E9030008E9030008E9030008E9030008D0
:10006000E9030008E9030008E9030008E9030008C0
:10007000E9030008E9030008E9030008E9030008B0
:10008000E9030008E9030008E9030008E9030008A0
:10009000E9030008E9030008E9030008E903000890
:1000A000E9030008E9030008E9030008E903000880
:1000B000E9030008E9030008E9030008E903000870
:1000C000E9030008E9030008E9030008E903000860
:1000D000E9030008E9030008E9030008E903000850
:1000E000E9030008E9030008E9030008E903000840
:1000F000E9030008E9030008E9030008E903000830
:10010000E9030008E9030008E9030008E90300081F
:10011000E9030008E9030008E9030008E90300080F
:10012000E9030008E9030008E9030008E9030008FF
:10013000E9030008E9030008E9030008E9030008EF
:10014000E9030008E9030008E9030008E9030008DF
:10015000E9030008E9030008E9030008E9030008CF
:10016000E9030008E9030008E9030008E9030008BF
:10017000E9030008E9030008E903000800000000A3
:10018000E9030008E903000800B583B001F05CFA58
:10019000384B394A1360394A136039490CE00A6810
:1001A0004B6801F10C04886803E01168196004339E
:1001B00004329842F9D82146324B9942EFD32E4B64
:1001C0001A68314B9A4204D12C4B1A682F4B9A4231
:1001D00000D0FEE7274B2E4A13602E4A13602E4BA9
:1001E0000AE0194651F8082B5B6802E00020106015
:1001F00004329A42FAD30B46284A9342F1D3244B55
:100200001B6813B9234B1B6803B1FEE701F078FCB0
:10021000694601A800F0D8FF214C224B1C1BA410FA
:10022000002504E01E4B53F8253098470135AC42B9
:10023000F8DC1D4C1D4B1C1BA410002504E01A4BC0
:1002400053F8253098470135AC42F8DC0099019805
:1002500001F008FF0546164C164B1C1BA41004E0C9
:10026000013C134B53F824309847002CF8DC284607
:1002700000F046FFBABADECA000000207400002079
:10028000EC030008040400087856341232547698BF
:1002900078000020780200200404000814040008FC
:1002A00014040008140400081404000818040008CA
:1002B000180400081804000808B5FFF765FF00BF20
:1002C00000BEFEE71EF0040F0CBFEFF30880EFF353
:1002D00009807146414A10472DE9F04182B0044639
:1002E0008846134B5E6B9F6B9D6A1B6B13F0020F6E
:1002F0000DD00F4BDB6A002B09DA4BF6AB6101F036
:1003000027FA20B14FF00042094BDA620CE00948AD
:1003100001F01AF9CDF800803B46324629462046C6
:1003200001F09EF900BEFEE702B0BDE8F08100BF1B
:1003300000ED00E09437000800BEFEE71EF0040F59
:100340000CBFEFF30880EFF309807146244A104791
:100350002DE9F04182B004468846084B5E6B9F6BE6
:100360009D6A074801F0F0F8CDF800803B46324620
:100370002946204601F074F900BEFEE700ED00E0DA
:10038000A43700081EF0040F0CBFEFF30880EFF352
:1003900009807146134A10472DE9F04182B00446A6
:1003A0008846084B5E6B9F6B9D6A074801F0CCF84E
:1003B000CDF800803B4632462946204601F050F9F0
:1003C00000BEFEE700ED00E0B037000800BEFEE72B
:1003D00000BEFEE700BEFEE770470000D90200083D
:0C03E000510300089903000800BEFEE76E
:1003EC007C3A000800000020780000207C3A0008CD
:1003FC000000001000000010780000207C0200209B
:0C040C000000001000000010F5210008A6
:1004200010B5044600F0ECFD064BA3FB003080093C
:1004300000F092F8002221464FF0FF3000F04AF819
:10044000002010BDD34D621008B50B4B1A6842F462
:1004500000721A601A6842F480621A601A6842F4E4
:1004600080721A60032000F017F80F20FFF7D8FF02
:1004700001F0C8FE002008BD003C0240024A13689B
:1004800001331360704700BF70020020014B1868F1
:10049000704700BF7002002010B50446C31E042B35
:1004A00003D9A421094801F045F8094AD36823F487
:1004B000E0631B041B0C240204F4E064234343F0B8
:1004C000BF6343F40033D36010BD00BF1C35000888
:1004D00000ED00E070B504460E4615460F2A03D91C
:1004E000BC211A4801F026F80F2E03D9BD21174868
:1004F00001F020F8164BDA68C2F30222C2F10701BC
:10050000042928BF0421131D062B01D9033A00E05A
:100510000022012303FA01F101393140914003FA2D
:1005200002F2013A2A400A43002C06DA04F00F04D2
:100530001201D2B2074B1A5570BD1201D2B204F1AA
:10054000604404F5614484F8002370BD1C35000844
:1005500000ED00E014ED00E00138B0F1807F0AD238
:10056000064B5860F021064A82F82310002098605C
:1005700007221A6070470120704700BF10E000E0BA
:1005800000ED00E010B50446042805D020B140F28B
:10059000B311084800F0CEFF042C05D1064A1368B9
:1005A00043F00403136010BD034A136823F00403EF
:1005B000136010BD1C35000810E000E02DE9F04785
:1005C00082B080460F46A44B984223D003F5806347
:1005D00098421FD003F5806398421BD003F58063D7
:1005E000984217D003F58063984213D003F58063D7
:1005F00098420FD003F5806398420BD003F58063D7
:10060000984207D003F58063984203D0C5219348F0
:1006100000F090FF3B881BB9C621904800F08AFF8C
:100620007B68012B22D9112B20D0022B1ED0122B3C
:100630001CD08B4A934219D002F58012934215D0F8
:1006400002F58012934211D0A2F5F81293420DD018
:1006500002F58012934209D002F58012934205D030
:10066000032B03D0C7217D4800F064FFBB68022B39
:1006700003D9C821794800F05DFF00252CE1012451
:10068000AC403E682640B44240F025817B68022B96
:1006900001D0122B4AD13B69C3B3092B36D0ABB37F
:1006A000A3B39BB393B3012B30D02FD0022B2DD00B
:1006B0002CD02BD0032B29D0042B27D026D025D00B
:1006C000052B23D022D0092B20D0062B1ED0092B9E
:1006D0001CD0072B1AD019D018D0082B16D015D043
:1006E00014D0092B12D011D00A2B0FD00ED00B2B07
:1006F0000CD00C2B0AD009D00D2B07D00C2B05D019
:100700000F2B03D0D921554800F014FFEA08083216
:1007100058F8220005F0070399000F238B4020EAC8
:1007200003003B698B40034348F82230D8F800307F
:100730004FEA450A4FF0030909FA0AF96FEA090975
:1007400003EA09027B6803F0030303FA0AF3134385
:10075000C8F800307B685A1E012A03D9112B01D03A
:10076000122B1BD1FB68032B03D9EC213B4800F073
:10077000E1FED8F8083009EA0302FB6803FA0AF33D
:100780001343C8F80830D8F8043023EA04047B681F
:10079000C3F30013AB401C43C8F80440D8F80C3036
:1007A00009EA0309BB6803FA0AF349EA0303C8F834
:1007B0000C307B6813F0805F00F08D800023019384
:1007C000284B5A6C42F480425A645B6C03F48043B9
:1007D0000193019BA9088A1C234B53F8220005F0C2
:1007E00003039B000F229A4020EA02001A4A904518
:1007F00021D002F5806290451FD002F580629045BD
:100800001DD002F5806290451BD002F580629045B4
:1008100019D002F58062904517D002F580629045AC
:1008200015D002F58062904513D002F580629045A4
:100830001CD108221BE0002219E0012217E002224D
:1008400015E0032213E0042211E005220FE0062246
:100850000DE007220BE000BF000002405035000809
:10086000000011100038024000380140092202FA4D
:1008700003F3034302311B4A42F821301A4B1A6832
:10088000F34302EA0301786810F4803F01D046EA9E
:100890000201154A1160526803EA0201786810F4F7
:1008A000003F01D046EA02010F4A5160926803EA14
:1008B0000201786810F4801F01D046EA02010A4A5A
:1008C0009160D2681340796811F4001F01D046EAA4
:1008D0000203054AD36001350F2D7FF6D0AE02B07A
:1008E000BDE8F08700380140003C014030B583B0DE
:1008F000044603680F2B03D9F6219C4800F01AFE2A
:10090000236813F0010F45D06368012B05D9052B2F
:1009100003D0FB21954800F00DFE954B9B6803F03A
:100920000C03042B0AD0924B9B6803F00C03082B9A
:100930000CD18F4B5B6813F4800F07D08C4B1B6876
:1009400013F4003F26D0636823BBCCE12279894BA6
:100950001A7063687BB1FFF799FD054605E0FFF764
:1009600095FD401B642800F2C081814B1B6813F485
:10097000003FF4D00EE0FFF789FD054605E0FFF7E4
:1009800085FD401B642800F2B281794B1B6813F48B
:10099000003FF4D1236813F0020F6AD0E368012B03
:1009A00004D940F22D11714800F0C4FD23691F2BBA
:1009B00004D94FF497716D4800F0BCFD6C4B9B68F7
:1009C00013F00C0F0AD06A4B9B6803F00C03082B42
:1009D0001BD1674B5B6813F4800F16D1644B1B6807
:1009E00013F0020F03D0E368012B40F082816048CE
:1009F000036823F0F8012369F82292FAA2F2B2FA0E
:100A000082F293400B43036033E0E368FBB10122C1
:100A1000594B1A60FFF73AFD054605E0FFF736FD32
:100A2000401B022800F26781514B1B6813F0020F34
:100A3000F4D04F48036823F0F8012369F82292FAB2
:100A4000A2F2B2FA82F293400B43036011E000225B
:100A5000494B1A60FFF71AFD054605E0FFF716FD42
:100A6000401B022800F24981414B1B6813F0020F22
:100A7000F4D1236813F0080F2ED06369012B04D939
:100A80004FF4B771394800F055FD636993B1012205
:100A90003A4B1A60FFF7FAFC054605E0FFF7F6FC53
:100AA000401B022800F22B81314B5B6F13F0020FC9
:100AB000F4D011E00022314B1A60FFF7E7FC054645
:100AC00005E0FFF7E3FC401B022800F21A81284BE7
:100AD0005B6F13F0020FF4D1236813F0040F60D0A2
:100AE000A368012B06D9052B04D04FF4CC711F4805
:100AF00000F020FD002301931D4B1A6C42F0805240
:100B00001A641B6C03F080530193019B1C4A136809
:100B100043F480731360FFF7B9FC054605E0FFF767
:100B2000B5FC401B022800F2EE80154B1B6813F445
:100B3000807FF4D0227A134B1A70A3688BB1FFF731
:100B4000A5FC054607E0FFF7A1FC401B41F28833F6
:100B5000984200F2DA80064B1B6F13F0020FF2D0BE
:100B60001FE0FFF793FC054616E000BF9035000834
:100B7000003802400238024000004742800E4742DF
:100B80000070004070380240FFF780FC401B41F2CB
:100B90008833984200F2BB80634B1B6F13F0020F47
:100BA000F2D1A369022B04D940F2CD115F4800F0C5
:100BB000C1FCA369002B00F0AC805B4A926802F094
:100BC0000C02082A00F0A780022B79D1E3693BB11F
:100BD000B3F5800F04D04FF4EB71544800F0AAFC39
:100BE000236A3F2B04D940F2D711504800F0A2FCF1
:100BF000636A323BB3F5BF7F04D94FF4EC714B48C5
:100C000000F098FCA36A022B0AD0042B08D0062B14
:100C100006D0082B04D040F2D911444800F08AFCD9
:100C2000E36A043B0B2B04D94FF4ED713F4800F00D
:100C300081FC00223E4B1A60FFF728FC054604E0C9
:100C4000FFF724FC401B022867D8374B1B6813F0C2
:100C5000007FF5D1E169236A1943636A47F6C072E0
:100C600092FAA2F2B2FA82F293401943A36A5B08A5
:100C70005A1E4FF4403393FAA3F3B3FA83F302FA04
:100C800003F30B43E26A4FF0706191FAA1F1B1FAFC
:100C900081F18A401343244A53600122244B1A6095
:100CA000FFF7F4FB044604E0FFF7F0FB001B02280B
:100CB00035D81D4B1B6813F0007FF5D0002031E0C4
:100CC00000221B4B1A60FFF7E1FB044604E0FFF72C
:100CD000DDFB001B022824D8134B1B6813F0007F98
:100CE000F5D100201EE001201CE003201AE00320C3
:100CF00018E0012016E0032014E0032012E0032096
:100D000010E003200EE003200CE003200AE00320A3
:100D100008E0002006E0012004E0032002E00320B8
:100D200000E0032003B030BD0038024090350008D9
:100D30006000474270B504460D460368013B0E2B28
:100D400004D94FF40E71834800F0F4FB072D04D949
:100D500040F239217F4800F0EDFB7F4B1B6803F028
:100D60000F039D4208D9EBB27B4A1370136803F05E
:100D70000F039D4240F0DB80236813F0020F1DD06B
:100D8000A368A3B1802B12D0902B10D0A02B0ED033
:100D9000B02B0CD0C02B0AD0D02B08D0E02B06D023
:100DA000F02B04D04FF414716A4800F0C3FB6B4978
:100DB0008B6823F0F002A36813438B60236813F061
:100DC000010F64D06368032B04D940F257216148B6
:100DD00000F0B0FB6268012A05D1604B1B6813F478
:100DE000003F0FD1A5E0931E012B05D85B4B1B687C
:100DF00013F0007F06D19EE0584B1B6813F0020FE2
:100E000000F09B8055498B6823F0030313438B60EC
:100E1000FFF73CFB06466368012B0FD107E0FFF7A5
:100E200035FB801B41F28833984200F288804B4B9F
:100E30009B6803F00C03042BF1D128E0022B0ED1A8
:100E400006E0FFF723FB801B41F28833984278D8F5
:100E5000424B9B6803F00C03082BF2D117E0032BE5
:100E600010D13E4B9B68FFF711FB801B41F288338A
:100E70009842F6D967E0FFF709FB801B41F28833FF
:100E8000984262D8354B9B6813F00C0FF3D1324B6C
:100E90001B6803F00F039D4207D2EAB22E4B1A7073
:100EA0001B6803F00F039D4251D1236813F0040F18
:100EB00019D0E36883B1B3F5805F0DD0B3F5A05FBF
:100EC0000AD0B3F5C05F07D0B3F5E05F04D040F2BD
:100ED000B521204800F02EFB20498B6823F4E05216
:100EE000E36813438B60236813F0080F1AD023695B
:100EF00083B1B3F5805F0DD0B3F5A05F0AD0B3F531
:100F0000C05F07D0B3F5E05F04D04FF42F711148F4
:100F100000F010FB114A936823F46043216943EA0F
:100F2000C10393600F20FFF77BFA002070BD012002
:100F300070BD012070BD012070BD012070BD032077
:100F400070BD032070BD032070BD032070BD012063
:100F500070BD00BF90350008003C024000380240E0
:100F6000244B9B6803F00C03042B3FD0082B01D0CB
:100F70002148704710B41F4B586800F03F005B6871
:100F800013F4800F10D01D4BB3FBF0F0194B5A68CF
:100F900047F6C0710A4091FAA1F3B3FA83F322FA3B
:100FA00003F303FB00F310E0134BB3FBF0F0114B22
:100FB0005A6847F6C07402EA040194FAA4F2B2FA3D
:100FC00082F221FA02F202FB00F30A4A506800F4AE
:100FD00040324FF4403090FAA0F0B0FA80F022FA9C
:100FE00000F001304000B3FBF0F001E0034870472F
:100FF00010BC7047003802400024F40000127A0050
:1010000008B5FFF7ADFF084B9B6803F0F002F02333
:1010100093FAA3F3B3FA83F322FA03F3034AD35CFC
:10102000D840034B186008BD0038024080350008E6
:101030000400002008B5034800F09EFA012000F0EB
:101040005FF800BFC035000808B50D4B1B6813B929
:101050000C4A0B4B1A600A4B1A68C31C23F003039B
:10106000134409498B4206D901F0D2F80C230360DE
:101070004FF0FF3008BD02490B60104608BD00BFAD
:101080007C0000207C02002000FC012030B50025FF
:10109000132420462946ABBE0446204630BD00BF7F
:1010A00038B5044601F0B4F80546FFF7EFFF2860B5
:1010B000204638BDB0F1FF3F03D108B5FFF7F0FF80
:1010C00008BD704710B504460B4B186818B1836B08
:1010D0000BB901F0E3F8132C09D8084B53F834305E
:1010E000B3F1FF3F05D0054800EBC40010BD002060
:1010F00010BD002010BD00BF7000002004010020C2
:1011000000B508B9044D00E0044D182420462946D6
:10111000ABBE0446FEE700BF26000200230002002B
:101120002DE9F04184B0234F019703260396002355
:101130000293012401AD20462946ABBE80461E4BDA
:10114000C3F80080019703960423029320462946A2
:10115000ABBE8046194BC3F8008001970396082365
:10116000029320462946ABBE0446154B1C60B4F1E1
:10117000FF3F03D1114B1A68114B1A60002305E0A1
:101180004FF0FF310F4A42F833100133132BF7DDD4
:101190000C4B094A12681A6000225A600749096814
:1011A0009960DA600649096819615A6104B0BDE8BE
:1011B000F08100BFD43500088400002080000020AA
:1011C0000001002004010020F0B583B005460C4664
:1011D000324B00934F2301936F4615263046394614
:1011E000ABBE0646002E46D12C4B83F84F60009ACA
:1011F000B64630463AE0E8B9294F3F6847FA83F3EC
:1012000093F90130002B03DB092903D1012302E00C
:10121000012300E0002343BB082E2DDC222901D04E
:10122000272901D101328E461E4B43F82620013674
:1012300001201AE0BEF1000F05D08E4515D1002027
:101240001070864611E0164F3F6847FA83F393F912
:101250000130002B03DB092903D1012302E0012324
:1012600000E000230BB1002010700132137859B256
:101270000029C0D100E000262EB9084B00221A70C8
:10128000084A13600136074B002243F826202E60DF
:101290002360FFF745FF03B0F0BD00BFB0000020A2
:1012A0000C0000208800002030B585B0019002912C
:1012B000039201AD062420462946ABBE04462046D3
:1012C000FFF7F8FE05B030BD70B50E461546FFF7C6
:1012D000F9FE30B900F09CFF092303604FF0FF30A6
:1012E00070BD04462A4631460068FFF7DDFFB0F1C5
:1012F000FF3F03D0281A63680344636070BD00BFDA
:10130000F0B583B00C461546FFF7DCFE30B900F0AF
:101310007FFF092303604FF0FF304DE00646022DAA
:1013200006D900F075FF162303604FF0FF3043E04D
:10133000012D13D14368E4180FD500F069FF16237F
:1013400003607368002B2CDD002C2DDD00F060FFA6
:101350008B2303604FF0FF302EE00025022D0FD1CC
:10136000336802AF47F8083D0C2528463946ABBE26
:1013700005462846FFF79EFEB0F1FF3F17D0044414
:101380003368009301946F460A2528463946ABBE60
:1013900005462846FFF78EFE00280BDB74602046CA
:1013A0000AE04FF0FF3007E04FF0FF3004E04FF06D
:1013B000FF3001E04FF0FF3003B0F0BD08B5FFF79C
:1013C0009FFF08BD30B585B001900291039201AD39
:1013D000052420462946ABBE04462046FFF76AFE98
:1013E00005B030BD70B50E461446FFF76BFE30B940
:1013F00000F00EFF092303604FF0FF3070BD05467B
:10140000224631460068FFF7DDFF021E09DBA01A05
:101410006B6803446B60944205D10020FFF740FEE7
:1014200070BD4FF0FF3070BD30B583B002AD45F8F0
:10143000040D022420462946ABBE04462046FFF791
:1014400039FE03B030BD00BF38B50446FFF73AFEA1
:1014500030B900F0DDFE092303604FF0FF3038BDE6
:101460000546013C012C09D8094B9A681B699A4230
:1014700004D14FF0FF330360002038BD2868FFF728
:10148000D3FF18B94FF0FF322A6038BD38BD00BF16
:101490000401002070B50C46FFF714FE30B900F0CF
:1014A000B7FE092303604FF0FF3070BD0646636846
:1014B00043F4005363604FF48063E3620C252846D5
:1014C0003146ABBE05462846FFF7F4FDB0F1FF3FBD
:1014D00002D02061002070BD4FF0FF3070BD00BF12
:1014E00038B505460C463C220021204600F0C8FFD6
:1014F00021462846FFF7CEFF38BD00BF38B5FFF7BD
:10150000E1FD28B900F084FE09230360002038BD06
:101510000546092420462946ABBE0446012C07D0C7
:1015200000F076FE0446FFF7B1FD2060002038BDD4
:10153000012038BD08B50A460146024800F004F80B
:10154000FFF778FD203600080FB400B583B004AB78
:1015500053F8042B01938021064801F0C9F90028B3
:1015600003DD0146034800F06BF803B05DF804EBBF
:1015700004B07047A401002010B5044601F0F3F850
:101580000146204600F05CF80121024800F058F8BE
:1015900010BD00BF1037000870B505460E46014665
:1015A0000A48FFF7D1FF002409E014B10848FFF70B
:1015B000CBFF56F824100748FFF7C6FF0134AC42B2
:1015C000F3DB0548FFF7C0FF70BD00BF4C360008D5
:1015D0006436000868360008703600082DE9F043CC
:1015E00085B004460F46435C13BB042528462146BC
:1015F000ABBE04461FE03546102E28BF1025002341
:1016000006E014F8011B04AA1A4402F8101C013366
:10161000AB42F6D304AA1344002203F8102CE94687
:101620004FF0040840464946ABBE8046761B00E0BA
:101630000E46002EDFD1384605B0BDE8F08300BF6E
:1016400008B5FFF7CBFF08BD08B500F001F9024B64
:10165000024A9A6008BD00BF00ED00E000000008EB
:10166000F8B504460D4617461E462648FFF76CFFA0
:1016700021682548FFF768FF61682448FFF764FF89
:10168000A1682348FFF760FFE1682248FFF75CFF8D
:1016900021692148FFF758FF61692048FFF754FF8F
:1016A000A1691F48FFF750FFE1691E48FFF74CFF93
:1016B0001D48FFF749FF29461C48FFF745FF1C4C12
:1016C000E16A1C48FFF740FF216B1B48FFF73CFF16
:1016D000E16B1A48FFF738FF15F0800F03D0394649
:1016E0001748FFF731FF15F4004F03D03146154876
:1016F000FFF72AFF1448FFF727FF06991348FFF763
:1017000023FFF8BD783600088836000898360008B0
:10171000A8360008B8360008C8360008D8360008D1
:10172000E8360008F83600080837000814370008C3
:1017300000ED00E024370008343700084437000883
:101740005437000864370008743700087C370008F5
:1017500038B583691B888B426FD10446036845689E
:10176000013B302B6BD8DFE803F0421D63635A2C3A
:101770002F2919196A19191919193219206A1923E7
:101780006A356A6A6A6A6A6A6A6A6A6A6A6A6A6AEE
:101790006A6A6A6A6A6A6A6A6A1919004FF0FF33EC
:1017A000036045E00023036042E0002303603FE064
:1017B00000232B606B60AB60EB6039E000230360BB
:1017C00036E0AB68036033E00023036030E00023C1
:1017D00003602DE0BFF34F8F1A49CA6802F4E0623C
:1017E000194B1343CB60BFF34F8F00BFFDE7174981
:1017F000286800F0AEFF70B96B6813B9012323604D
:1018000016E0042B02D10223236011E0082B02D141
:10181000032323600CE04FF0FF33236008E02B68C4
:10182000023B012B02D80023036001E0AB68036098
:10183000A3690233A361012038BD002038BD002018
:1018400038BD00BF00ED00E00400FA05D435000803
:101850000C4B1A6842F001021A60002199601A6864
:1018600022F0847222F480321A60074A5A601A68A1
:1018700022F480221A60D9604FF00062034B9A6014
:10188000704700BF003802401030002400ED00E037
:10189000224B9B6803F00C03042B07D0082B09D0C4
:1018A000002B2DD11E4A1F4B1A602CE01E4A1D4BE7
:1018B0001A6028E0194B5A685B6803F03F0312F482
:1018C000800F09D0184AB2FBF3F2144B5B68C3F3E4
:1018D000881303FB02F208E0114AB2FBF3F30F4A4C
:1018E0005168C1F3881101FB03F20C4B5B68C3F331
:1018F000014301335B00B2FBF3F30A4A136002E0D9
:10190000074A084B1A60054B9B68C3F30313074A49
:10191000D15C044A1368CB40136070470038024022
:101920000024F4000400002000127A00C0370008F0
:1019300010B4016042600373012303FA02F2826073
:1019400010BC7047037B5BB1036803F580138033E1
:101950009B02426802F1100101228A409A6170479D
:10196000036803F5801380339B0282689A61704795
:10197000037B3BB1036803F5801380339B028268CD
:101980009A617047036803F5801380339B024268B5
:1019900002F1100101228A409A61704710B586B0A9
:1019A00004460D49086B2368012202FA03F303433E
:1019B0000B63A368019302920223049303922068AD
:1019C00000F58010803001A98002FEF7F7FD204667
:1019D000FFF7CEFF06B010BD00380240036803F5E4
:1019E000801380339B0219698268114204D05969BF
:1019F00021EA02025A61704759690A435A617047E5
:101A0000037B5BB1036803F5801380339B021A6983
:101A100083681A420CBF012000207047036803F559
:101A2000801380339B021A6983681A4214BF012015
:101A300000207047034B1860024B1B68002BFBD142
:101A4000704700BF2402002008B5FEF717FD044BC5
:101A50001B681BB1024A1368013B136008BD00BF3D
:101A60002402002030B595B000240194214B1A6C5B
:101A700042F080521A641B6C03F080530193019B67
:101A800002941D4B1A6842F480421A601B6803F4EA
:101A900080430293029B0123089309934FF4800330
:101AA0000F93082310934FF4A873119302251295F6
:101AB000072313930E9508A8FEF718FF0F2303932F
:101AC000049505944FF4A05306934FF48053079365
:101AD000052103A8FFF72EF9FFF792FA074BA3FBA6
:101AE00000308009FEF738FD0420FEF74BFD15B0ED
:101AF00030BD00BF0038024000700040D34D62107E
:101B000008B5FEF7A1FCFFF7ADFFFFF7C1FE08BD6A
:101B100010B400231C46032B11DC41FA03F212F02F
:101B2000010F00D0444010F0080F04D04000C0B2B4
:101B300080F0030001E04000C0B20133EBE704F0A5
:101B40000F0010BC704700BFF0B50027032F1BDC4F
:101B50000024032C16DCBB00C618234403EB02133D
:101B60000A4D2D68002D00DA0335AD1093FBF5FE0C
:101B700005FB1E3516F804E04B5D8EEA0303335572
:101B80000134E6E70137E1E7F0BD00BF08000020BF
:101B9000F0B58DB006468C461F4C6F4604F1300EF2
:101BA0003D4620686168A268E3680FC510342F467F
:101BB0007445F5D1327982F00104327A82F0020163
:101BC000337B83F00300154B1A68C2F30312357898
:101BD0006A4032701B68C3F303126240327103F033
:101BE0000F0381EA03023272434033730CAB9C440F
:101BF0001CF8303CC3F3C200717841407170727AB6
:101C00004240727203F0070372795A407271727B1C
:101C1000534073730DB0F0BDD037000808000020AA
:101C200030B40025032D0CDC0023032B07DC00EB74
:101C30008502D15C044C615CD1540133F5E7013578
:101C4000F0E730BC704700BF0038000830B482B005
:101C50000121032921DC0023032B08DC00EB810296
:101C6000D45C02AA1A4402F8044C0133F4E70022BF
:101C7000032A10DC00EB81058B18094C234003D5A7
:101C8000013B63F00303013302AC234413F8043C2B
:101C9000AB540132ECE70131DBE702B030BC7047F6
:101CA000030000802DE9F04182B080460027032F19
:101CB00027DC0026032E16DC00252C46032C0CDC2A
:101CC000114B03EB860308EB8402D15D185DFFF72F
:101CD0001FFF6840C5B20134F0E702AB334403F89C
:101CE000045C0136E6E70023032B08DC08EB8302E3
:101CF00002A9194411F8041CD1550133F4E7013746
:101D0000D5E702B0BDE8F0815C380008F0B58DB0D1
:101D1000064600230F2B30DC13F0010F16D01846B7
:101D2000002B00DAD81C84105148184003D5013824
:101D300060F0030001305D10755D0CAF07EB8404AB
:101D4000204405F00F0400F8104C14E01846002B56
:101D500000DAD81C84104648184003D5013860F0DA
:101D6000030001305D10755D0CAF07EB8404204467
:101D70002C0900F8104C0133CCE700231046002A50
:101D800000DAD01CB3EBA00F14DA13F0010F08D067
:101D900058100C5C04F00F040CA8184400F8304CE8
:101DA00006E058100C5C24090CA8184400F8304CCC
:101DB0000133E3E72F4B1A60402A01DD302700E0B2
:101DC00020270022694608A8FFF7BEFE0025B5EBD4
:101DD000A70F19DA0024032C0FDC04EB850108A8F7
:101DE000FFF7D6FE08A8FFF71BFF08A8FFF72EFF96
:101DF00008A8FFF757FF0134EDE701352A46694689
:101E000008A8FFF7A1FEE2E7002107292DDC7018E2
:101E10004B001A46002B00DADA1C9410144A1A40C0
:101E200003D5013A62F0030201320CAD05EB8404E4
:101E3000224412F8105C01331A46002B00DADA1C37
:101E400092100B4C234003D5013B63F00303013395
:101E50000CAC04EB8202134413F8103C03F00F03A4
:101E600043EA051303700131CFE70DB0F0BD00BFA9
:101E7000030000800800002070B588B005460126E8
:101E8000092E5DDC0024072C0ADC00F0D5FBC0B273
:101E900008AB234403F8080C03F8100C0134F2E7F4
:101EA00000240F2C07DC00F0C7FB08AB234403F829
:101EB000200C0134F5E75048FFF746FB4F48FFF789
:101EC00043FB00242B46002D00DAEB1DB4EBE30F9F
:101ED00008DA08AB234413F8201C4948FFF734FB09
:101EE0000134EFE74748FFF72FFB4748FFF72CFB8C
:101EF0000024072C08DC08AB234413F8081C4048D6
:101F0000FFF722FB0134F4E73E48FFF71DFB2A46AA
:101F1000694604A8FFF7FAFE3C48FFF715FB0024CA
:101F2000072C08DC08AB234413F8101C3448FFF7D7
:101F30000BFB0134F4E73648FFF706FB01369FE759
:101F40000023072B08DC08AA1A44002102F8081C09
:101F500002F8101C0133F4E700230F2B06DC08AA5B
:101F60001A44002102F8201C0133F6E72248FFF74B
:101F7000EBFA2248FFF7E8FA00242B46002D00DA9E
:101F8000EB1DB4EBE30F08DA08AB234413F8201C75
:101F90001B48FFF7D9FA0134EFE71A48FFF7D4FAE4
:101FA0001948FFF7D1FA0024072C08DC08AB2344BA
:101FB00013F8081C1248FFF7C7FA0134F4E7114878
:101FC000FFF7C2FA2A46694604A8FFF79FFE0F48AA
:101FD000FFF7BAFA0024072C08DC08AB234413F8F7
:101FE000101C0748FFF7B0FA0134F4E70848FFF780
:101FF000ABFA08B070BD00BF103800083C380008CC
:1020000040380008103700084838000850380008E9
:1020100058380008012821D14FF6FF7399421DD18D
:1020200010B50F4C00230C2203212046FFF780FC43
:1020300000230D22032104F11000FFF779FC002397
:102040000E22032104F12000FFF772FC00230F226F
:10205000032104F13000FFF76BFC10BD704700BF97
:10206000280200202DE9F04106460D46FFF794FABC
:102070005548FFF781FA554800F0D6FA544B1B68D3
:10208000DB6818220121534800F0ECF9524C21681A
:102090005248FFF759FA2368514AA2FB03239B09D0
:1020A000013BB3F1807F09D24E4A5360F0214E4B81
:1020B00083F8231000239360072313600024032C6C
:1020C00006D84A4800EB0410FFF768FC0134F6E735
:1020D000012E06DD686800F097F807460F2802DD3C
:1020E00002E0102700E010270024032C06D83F4808
:1020F00000EB0410FFF726FC0134F6E74FF47A708A
:10210000FFF798FC0024032C06D8384800EB041095
:10211000FFF72EFC0134F6E7FA20FFF78BFC0121D4
:102120003348FFF711FA00240126032C16D82F4D4F
:1021300005EB04152846FFF705FC40F2EE20FFF7FB
:1021400079FC2846FFF714FCFA20FFF773FC0136F0
:1021500031462748FFF7F8F90134E6E74FF0000869
:1021600047451ADD0025032D0BD8204C04EB051440
:102170002046FFF733FC2046FFF742FC08B9013543
:10218000F1E74FF47A70FFF755FC013631461848F5
:10219000FFF7DAF908F10108E2E70024032C06D87A
:1021A000124800EB0410FFF7CDFB0134F6E74FF4C3
:1021B0007A70FFF73FFC4020FFF75EFE4FF47A7025
:1021C000FFF738FCFAE700BF6C38000880380008D9
:1021D000700000209C38000804000020B838000877
:1021E000D34D621010E000E000ED00E02802002076
:1021F000D038000808B54FF6FF710120FFF70AFF3D
:1022000008BD00BF704700BF0A22002100F03ABBA2
:10221000014B1868704700BF70000020014900F0B2
:10222000A9B800BFE12B0008002310B504460360E5
:102230004360836081814366C2810361436183613E
:10224000194608225C3000F01BF9054B6362054B10
:10225000A362054BE362054B2462236310BD00BFFC
:10226000CD260008EF260008272700084B27000886
:1022700070B568234D1E5D430E4605F1740100F0F4
:1022800007F9044640B1002180E842000C30A0600C
:1022900005F1680200F0F4F8204670BD836910B5BE
:1022A000044633BB8364C3640365124B124A1B6844
:1022B0008262984204BF0123836100F01FF86060CE
:1022C000204600F01BF8A060204600F017F800221E
:1022D000E06004216068FFF7A7FF01220921A068E0
:1022E000FFF7A2FF02221221E068FFF79DFF012302
:1022F000A36110BD443A00081D220008F8B51C4B2C
:102300001E68B369074613B93046FFF7C7FF483662
:10231000B4687368013B04D4B4F90C507DB16834DF
:10232000F8E733680BB13668F2E704213846FFF767
:102330009FFF30600028F6D10C233B60F8BD4FF6BC
:10234000FF73E3810123A38165662560A560656055
:1023500025616561A5610822294604F15C0000F051
:102360008FF86563A563A564E5642046F8BD00BFEA
:10237000443A00082DE9F8438046894600F14804B4
:10238000002694B1A5686768013F0CD4AB89012B86
:1023900007D9B5F90E30013303D029464046C84766
:1023A00006436835F0E72468EBE73046BDE8F8837C
:1023B0002DE9F843089C0E46904602FB03F90746B8
:1023C00018B183690BB9FFF769FF234B9C4201D118
:1023D0007C6808E0214B9C4201D1BC6803E0204BA3
:1023E0009C4208BFFC68A3891A0703D523690BB177
:1023F000002520E02146384600F0EEFA0028F7D00C
:10240000002525E0A368013B002BA36019DAA2692F
:10241000934213DB236832781A70236819780A29EB
:1024200013D12246384600F071FA431C58425841F5
:1024300070B9013501364D45E4D109E022463178C5
:10244000F0E7236832781A70236801332360F0E7DD
:10245000B5FBF8F0BDE8F883E0390008003A000861
:10246000203A000807B5009313460A460146034880
:102470000068FFF79DFF03B05DF804FB70000020CB
:1024800002440346934202D003F8011BFAE7704767
:1024900070B5CD1C25F0030508350C2D38BF0C2573
:1024A000002D064603DA0C233360002070BDA942DC
:1024B000F9D81F4B1C681A462146A1B10B685B1B5B
:1024C0000ED40B2B03D90B60CC18CD501EE08C42E0
:1024D0000DBF63684B686360136018BF0C4615E05E
:1024E0000C464968E9E7134C23681BB9304600F0F5
:1024F000DDF820602946304600F0D8F8431CD2D0E1
:10250000C41C24F00304A0420AD1256004F10B008E
:10251000231D20F00700C31A09D05A42E25070BDB3
:10252000211A304600F0C2F80130EED1BBE770BD91
:102530006C0200206802002070B50E46054618B1F6
:1025400083690BB9FFF7AAFEAB69AC6813B92846DB
:10255000FFF7A4FE314B9C4201D16C6808E0304B80
:102560009C4201D1AC6803E02E4B9C4208BFEC6852
:10257000A389190701D5236983B92146284600F0AC
:102580002BFA58B14FF0FF3070BD002B0EDB2368E3
:1025900016F8012C1A70236801332360A36816F81B
:1025A000012B013BA360002AEFD116E0A269934200
:1025B00009DB236816F8012C1A70236819780A2998
:1025C000EAD1224602E016F8011C2246284600F015
:1025D0009DF9421C50425041D3E7002B15DAA26905
:1025E000934208DB23680A221A7023681978914203
:1025F0000FD1224601E022460A21284600F086F942
:10260000431C5842584130B1BCE723680A221A7073
:102610002368013323600A2070BD00BFE039000841
:10262000003A0008203A0008024B01461868FFF7FC
:1026300083BF00BF70000020194B10B51C68A36B4E
:10264000D3B9182000F056FB43F20E33A063038089
:102650004AF6CD33438041F2342383804EF26D63DA
:10266000C3804DF6EC630381052343810B238381F3
:1026700001220023C0E90423A16B0A4C0B694869BD
:10268000094A5C4302FB0040A3FB022301320344DE
:1026900043F10003C1E9042323F0004010BD00BF53
:1026A000700000202DF451582D7F954C38B5064C04
:1026B0000023054608462360FEF7C6FC431C02D1F2
:1026C000236803B12B6038BD7402002010B50C469E
:1026D000B1F90E1000F046FE0028ABBF636DA38970
:1026E0001B1823F48053ACBF6365A38110BD2DE993
:1026F000F0411F468B89DB0505460C46164605D57D
:1027000002230022B1F90E1000F094FAA389B4F963
:102710000E1023F48053A38132463B462846BDE881
:10272000F04100F047B910B50C46B1F90E1000F0B9
:1027300081FA431CA38915BF606523F4805343F4D9
:102740008053A38118BFA38110BDB1F90E1000F012
:10275000AFB910F8012B11F8013B012A28BF9A42AA
:10276000F7D0D01A7047034613F8012B002AFBD18B
:10277000181A0138704700002DE9F047804640489C
:10278000D0F800900F463D4615F8014B09EB0400C8
:10279000407800F0080000F0FF0608B12F46F2E78D
:1027A0002D2C03D1BD1C7C78012603E02B2C04BF0B
:1027B0007C78BD1C13B1102B0AD15BE0302C57D1B3
:1027C000287800F0DF0058284DD16C7810230235AE
:1027D000002E14BF4FF0004C6FF0004C0027BCFBE4
:1027E000F3FA384603FB1ACC09EB040E9EF801E01D
:1027F0001EF0040F01D0303C0BE01EF0030E1BD086
:10280000BEF1010F0CBF4FF0370E4FF0570ECEEB5D
:102810000404A34210DDB7F1FF3F0AD0504506D8AB
:1028200001D1644503DC03FB0040012701E04FF0C8
:10283000FF3715F8014BD7E77B1C0CD1002E4FF06A
:10284000220314BF4FF000406FF00040C8F8003082
:102850002AB9BDE8F08706B1404272B107B1691EDE
:102860001160BDE8F0873024002BB1D10823AFE719
:102870000A23ADE7302CA3D0AAE7BDE8F08700BF5C
:102880000C00002013460A46014602480068FFF784
:1028900073BF00BF7000002030B5141E05469BB00A
:1028A000184604DA8B232B604FF0FF301DE04FF405
:1028B0000273ADF80C3014BF04F1FF3323460293CA
:1028C00005934FF6FF7300910491ADF80E30024668
:1028D0001E9B6946284600F0B5FA431CBCBF8B23FB
:1028E0002B6014B1009B00221A701BB030BD000099
:1028F00007B5009313460A46014603480068FFF7F0
:10290000CBFF03B05DF804FB70000020F8B50F4664
:102910001446064618B183690BB9FFF7BFFC224B7A
:102920009C4201D1746808E0204B9C4201D1B468FC
:1029300003E01F4B9C4208BFF468A369A360A3890E
:102940001A0709D523693BB123682069181A6369FE
:102950009842FDB20FDB08E02146304600F03CF81B
:102960000028F1D04FF0FF30F8BD2146304600F08E
:1029700037F90028F6D1A368013BA36023685A1CED
:1029800022601F706269431C934204D0A389DB0755
:1029900007D50A2D05D12146304600F021F900283F
:1029A000E0D12846F8BD00BFE0390008003A000831
:1029B000203A000838B5074C054608461146002263
:1029C00022601A46FEF70EFD431C02D1236803B1B4
:1029D0002B6038BD74020020314B70B51D6806466F
:1029E0000C4625B1AB6913B92846FFF757FC2D4BB0
:1029F0009C4201D16C6808E02B4B9C4201D1AC6831
:102A000003E02A4B9C4208BFEC68A3899AB21107E5
:102A10001DD4D50602D40922326038E0500712D501
:102A2000616B41B104F14403994202D0304600F099
:102A300069F900236363A38923F02403A38100239E
:102A4000636023692360A38943F00803A38123699A
:102A50004BB9A38903F42073B3F5007F03D021465B
:102A6000304600F0F9F8A38913F0010205D00022E6
:102A7000A26062695242A26103E0990758BF62698D
:102A8000A26022694AB903F0800080B230B143F0FD
:102A90004003A3814FF0FF3070BD002070BD00BF28
:102AA00070000020E0390008003A0008203A0008D1
:102AB00038B5064C0023054608462360FEF7C4FCE3
:102AC000431C02D1236803B12B6038BD740200207F
:102AD0008A892DE9F041054610070C4659D44B6808
:102AE000002B02DC0B6C002B17DDE66AAEB102F4A2
:102AF0008052002392B22F682B600AB1606D15E0FE
:102B0000216A01232846B047411C0FD12B686BB1C5
:102B10001D2B01D0162B03D12F600020BDE8F081C2
:102B2000A38943F04003A381BDE8F081A3895A073C
:102B300005D56368C01A636B0BB1236CC01A002300
:102B40000246E66A216A2846B047431CA38906D19B
:102B500029681D293AD8214ACA40D60736D500220D
:102B60006260D9042269226004D5421C01D12B681D
:102B700003B96065616B2F600029CED004F1440376
:102B8000994202D0284600F0BDF800206063BDE8FD
:102B9000F0810F69002FC0D093070E6808BF4B6902
:102BA0000F6018BF0023C7EB06088B6002E00744E4
:102BB000C0EB0808B8F1000FAFDD43463A46216A82
:102BC000A66A2846B0470028F1DCA38943F04003F9
:102BD000A3814FF0FF30BDE8F08100BF010040202D
:102BE00038B50B6905460C46DBB118B183690BB9E2
:102BF000FFF754FB0C4B9C4201D16C6808E00B4B77
:102C00009C4201D1AC6803E0094B9C4208BFEC68D0
:102C1000B4F90C302BB121462846BDE83840FFF707
:102C200057BF002038BD00BFE0390008003A000857
:102C3000203A000838B5074C0546084611460022E0
:102C400022601A46FEF7BAFB431C02D1236803B187
:102C50002B6038BD74020020F0B58B899D0791B0C0
:102C600006460C4626D4B1F90E10002909DAA389CC
:102C700013F0800F4FF0000514BF40274FF480671A
:102C80000DE001AA00F080FB0028F0DB029D05F4B6
:102C90007045A5F500514D424D414FF480673946CE
:102CA0003046FFF7F5FB60B9A3899A051DD443F0C0
:102CB0000203A38104F147032360236101236361BD
:102CC00013E00B4BB362A389206043F08003A38120
:102CD000206167614DB1B4F90E10304600F066FB1B
:102CE00018B1A38943F00103A38111B0F0BD00BF67
:102CF0001D220008024B01461868FFF7C9BB00BF40
:102D00007000002030B500293ED051F8042C0B1F74
:102D10001E49002AB8BF9B180A680C4612B95A60AF
:102D20000B6030BD9A420ED919685818824204BF10
:102D3000106852685A6004BF09181960236030BDDA
:102D4000994203D80A4651680029F9D11468151927
:102D50009D420AD11B682344D0188142136013D1CD
:102D60000868034413604B680DE002D90C2303602C
:102D700030BD18681C18A14204BF0C68496859602E
:102D800004BF00191860536030BD00BF6C02002002
:102D90002DE9F0478E689E4282460C469146984641
:102DA0003ED88A8912F4906F3AD0256809696F1A63
:102DB0006569022305EB450595FBF3F57B1C434450
:102DC0009D4238BF1D4653050FD52946FFF760FBCE
:102DD000064698B13A46216900F04AFBA38923F4DC
:102DE000906343F08003A38113E02A4600F066FB62
:102DF000064670B921695046FFF784FF0C23CAF8D4
:102E00000030A38943F04003A3814FF0FF30BDE8B9
:102E1000F087266165613E44ED1B2660A56046464D
:102E2000464528BF464632464946206800F02BFBFF
:102E3000A3689B1BA36023681E4426600020BDE896
:102E4000F08700002DE9F04F9DB0804603938B89F9
:102E50001C060D4616460DD50B695BB94021FFF7E0
:102E600017FB2860286118B90C23C8F80030CDE0A2
:102E700040236B610023099320238DF82930DFF86C
:102E80009CB130238DF82A3037463C4614F8013B7C
:102E90001BB9B7EB060910D003E0252BF9D0274664
:102EA000F3E74B46324629464046FFF771FF0130B3
:102EB00000F0A780099B4B4409933B78002B00F05E
:102EC000A08000234FF0FF320493079305920693EE
:102ED0008DF853301A930126052221784E4800F0D0
:102EE00077FA671C049B38B14B4A801A06FA00F047
:102EF000184304903C46EFE7D90644BF20228DF8E2
:102F000053201A0744BF2B228DF8532022782A2AF7
:102F100003D0079A00210A200BE0039A111D1268C2
:102F20000391002A10DA524243F002000792049003
:102F30000BE0274601343B78303B092B03D800FBDC
:102F400002320121F5E701B107923B782E2B1ED109
:102F50007B782A2B0AD1039B1A1D1B680392002B36
:102F6000B8BF4FF0FF330237059310E000230593FD
:102F7000781C19460A24074601303A78303A092A63
:102F800003D804FB01210123F5E703B105910322D6
:102F90003978224800F01CFA40B14023CBEB000006
:102FA00003FA00F0049B18430490013739781C4859
:102FB0008DF8281006227E1C00F00AFA88B1194B01
:102FC00033B9039B073323F007030833039314E05B
:102FD00003AB00932A46144B04A94046AFF300808C
:102FE00007E003AB00932A460F4B04A9404600F0CC
:102FF00093F8B0F1FF3F824603D0099B53440993F5
:1030000042E7AB895B0601D4099801E04FF0FF303D
:103010001DB0BDE8F08F00BF483A00084E3A0008E6
:10302000523A000800000000912D00082DE9F047F9
:1030300091461F460A698B68DDF820809342B8BF2D
:103040001346C9F8003091F8432006460C4612B1E9
:103050000133C9F800302368990642BFD9F800301F
:103060000233C9F80030256815F0060510D104F1C7
:10307000190A07E00123524639463046C04701305D
:103080001AD00135E368D9F800209B1A9D42F1DB84
:1030900094F843302268003318BF012392060FD5FD
:1030A000E1185A1C302081F84300224494F845105E
:1030B00082F84310023303E04FF0FF30BDE8F087A1
:1030C00004F1430239463046C0470130F4D022684B
:1030D000D9F80050E36802F00602042A08BF5D1B1D
:1030E0002269A3680CBF25EAE57500259342C4BF99
:1030F0009B1AED184FF000091A344D4509D00123F1
:10310000224639463046C0470130D5D009F1010981
:10311000F3E70020BDE8F0872DE9F04317460A7E6B
:1031200085B06E2A984606460C460C9B01F1430E6C
:1031300000F0AE8011D8632A22D009D8002A00F00E
:10314000BB80582A40F0CA8081F84520834955E069
:10315000642A1ED0692A1CD0C0E0732A00F0B08017
:1031600009D86F2A2ED0702A40F0B8800A6842F041
:1031700020020A603EE0752A24D0782A3AD0ADE0D9
:103180001A6801F14205111D1960136884F8423074
:10319000A8E021681A6811F0800F02D0111D196093
:1031A00008E011F0400F02F10401196002D0B2F9F9
:1031B000003000E01368002B3CDA2D225B4284F8DB
:1031C000432037E021681A6811F0800F02D0111DEA
:1031D000196007E011F0400F02F10401196001D0FD
:1031E000138800E01368227E5C496F2A14BF0A220C
:1031F00008221BE078225A4984F845202268186882
:1032000012F0800F00F104051D6003D1550601D5B1
:10321000038800E00368D00744BF42F02002226028
:103220001BB9226822F0200222601022002084F8BC
:10323000430001E049490A226568A560002D08DBCA
:10324000206820F0040020602BB9002D7DD1754648
:103250000CE0002B79D07546B3FBF2F002FB103383
:10326000CB5C05F8013D03460028F5D1082A0BD1B7
:103270002368DA0708D5236962689A42DEBF3023E3
:1032800005F8013C05F1FF35C5EB0E0323612EE087
:1032900008681A68496910F0800F03D0101D186083
:1032A000136808E010F0400F02F104001860136882
:1032B00001D0198000E0196000232361754616E0F3
:1032C0001A68111D1960156862680021284600F00F
:1032D0007FF808B1401B6060636804E004F14205B8
:1032E00084F8422001232361002384F84330CDF881
:1032F00000803B4603AA21463046FFF797FE013087
:1033000002D14FF0FF3026E023692A463946304685
:10331000C0470130F5D023689B0710D5002504F184
:10332000190907E001234A4639463046C0470130B3
:10333000E7D00135E368039A9B1A9D42F2DBE0680F
:10334000039B9842B8BF184605E00B7884F84230DA
:1033500004F142058AE705B0BDE8F083593A000858
:103360006A3A000838B5074C05460846114600225F
:1033700022601A46FDF7A8FF431C02D1236803B15F
:103380002B6038BD7402002038B5074C0023054679
:10339000084611462360FEF7A3F8431C02D12368B8
:1033A00003B12B6038BD00BF7402002038B5064C55
:1033B0000023054608462360FEF7A0F8431C02D10F
:1033C000236803B12B6038BD7402002000000000A8
:1033D00001F0FF01102A2BDB10F0070F08D010F8C6
:1033E000013B013A8B422DD010F0070F42B3F6D1CA
:1033F000F0B441EA012141EA014122F007047FF0E3
:1034000000070023F0E80256083C85EA010586EA39
:10341000010685FA47F5A3FA87F586FA47F6A5FA75
:1034200087F68EB9EED1F0BC01F0FF0102F0070281
:1034300032B110F8013B013A83EA010313B1F8D12C
:103440000020704701387047002D06BF354603380D
:10345000073815F0010F07D1013015F4807F02BF46
:10346000013015F4C03F0130F0BC0138704700BF97
:1034700010B5431E0A44914204D011F8014B03F8E1
:10348000014FF8E710BD884210B501EB020301D8E7
:10349000421E0BE09842FBD28118D21AD34204D0CC
:1034A00013F8014D01F8014DF8E710BD994204D021
:1034B00011F8014B02F8014FF8E710BDF8B50746C7
:1034C00015460E4621B91146BDE8F840FEF7E0BFAB
:1034D0001AB9FFF717FC2846F8BD00F015F8854229
:1034E0000ED929463846FEF7D3FF044650B131467F
:1034F0002A46FFF7BDFF31463846FFF703FC01E0DF
:103500003046F8BD2046F8BD51F8040C0028BEBF77
:10351000091851F8043CC018043870472E2E2F7338
:10352000797374656D2F7372632F73746D333266A4
:10353000342D68616C2F73746D3332663478785F24
:1035400068616C5F636F727465782E6300000000C1
:103550002E2E2F73797374656D2F7372632F7374AE
:103560006D333266342D68616C2F73746D3332663F
:103570003478785F68616C5F6770696F2E630000F4
:103580000000000001020304010203040607080909
:103590002E2E2F73797374656D2F7372632F73746E
:1035A0006D333266342D68616C2F73746D333266FF
:1035B0003478785F68616C5F7263632E630000002B
:1035C00061626F727428292C2065786974696E674E
:1035D0002E2E2E003A7474002F746D7000000000BF
:1035E0002C2066756E6374696F6E3A2000000000CF
:1035F000617373657274696F6E2022257322206671
:1036000061696C65643A2066696C652022257322C5
:103610002C206C696E65202564257325730A0000D3
:103620006173736572745F706172616D28292066C1
:1036300061696C65643A2066696C65202225732295
:103640002C206C696E652025640A00006D61696E2E
:1036500028617267633D25642C20617267763D5B4B
:10366000000000002C200000222573220000000032
:103670005D293B0A00000000537461636B20667291
:10368000616D653A0A000000205230203D2020255F
:103690003038580A00000000205231203D202025FB
:1036A0003038580A00000000205232203D202025EA
:1036B0003038580A00000000205233203D202025D9
:1036C0003038580A0000000020523132203D2025B9
:1036D0003038580A00000000204C52203D202025A0
:1036E0003038580A00000000205043203D2020259B
:1036F0003038580A0000000020505352203D202549
:103700003038580A000000004653522F4641523AC2
:103710000A0000002043465352203D202025303827
:10372000580A00002048465352203D2020253038BA
:10373000580A00002044465352203D2020253038AE
:10374000580A00002041465352203D2020253038A1
:10375000580A0000204D4D464152203D202530386A
:10376000580A00002042464152203D202025303892
:10377000580A00004D6973630A000000204C522F64
:103780004558435F52455455524E3D2025303858D8
:103790000A0000005B486172644661756C745D0AE2
:1037A000000000005B4275734661756C745D0A0031
:1037B0005B55736167654661756C745D0A00000056
:1037C00000000000000000000102030406070809D1
:1037D0000103070F1F3E3D3B372F1E3C3933270E99
:1037E0001D3A352B162C18302102050B172E1C38CC
:1037F0003123060D1B362D1A3429122408112204F8
:103800000C05060B09000A0D030E0F080407010240
:10381000746573743D3D3D3D3D3D3D3D3D3D3D3D0C
:103820003D3D3D3D3D3D3D3D3D3D3D3D3D3D3D3DC8
:103830003D3D3D3D3D3D3D0A000000004B3D20002B
:10384000253032780000000050203D2000000000AC
:1038500043203D20000000000A0A0000040102028B
:10386000080605060B0E0A0902020F0B48656C6C70
:103870006F2041524D20576F726C64210000000090
:103880005374616E64617264206F75747075742016
:103890006D6573736167652E000000005374616E7F
:1038A00064617264206572726F72206D65737361FA
:1038B00067652E0A0000000053797374656D2063FC
:1038C0006C6F636B3A20257520487A0A000000006F
:1038D0005365636F6E642025750A00000020202068
:1038E00020202020202028282828282020202020B0
:1038F0002020202020202020202020202088101080
:1039000010101010101010101010101010040404DB
:103910000404040404040410101010101010414199
:103920004141414101010101010101010101010187
:10393000010101010101010110101010101042429B
:103940004242424202020202020202020202020257
:1039500002020202020202021010101020000000F7
:103960000000000000000000000000000000000057
:103970000000000000000000000000000000000047
:103980000000000000000000000000000000000037
:103990000000000000000000000000000000000027
:1039A0000000000000000000000000000000000017
:1039B0000000000000000000000000000000000007
:1039C00000000000000000000000000000000000F7
:1039D00000000000000000000000000000000000E7
:1039E00000000000000000000000000000000000D7
:1039F00000000000000000000000000000000000C7
:103A000000000000000000000000000000000000B6
:103A100000000000000000000000000000000000A6
:103A20000000000000000000000000000000000096
:103A30000000000000000000000000000000000086
:103A40004300000010000020232D302B2000686C64
:103A50004C006566674546470030313233343536B1
:103A600037383941424344454600303132333435EA
:0B3A7000363738396162636465660018
:103A7C00785634120024F40040000000DC380008B2
:103A8C0000000000E0390008003A0008203A000865
:103A9C00000000000000000000000000000000001A
:103AAC00403A000800000000000000000000000088
:103ABC0000000000000000000000000000000000FA
:103ACC0000000000000000000000000000000000EA
:103ADC0000000000000000000000000000000000DA
:083AEC0010000020325476980E
:040000050800018965
:00000001FF
