:020000040800F2
:100000000000022085530008190400081D040008A0
:10001000210400082504000829040008000000004D
:100020000000000000000000000000002D04000897
:1000300031040008000000003504000839040008FD
:10004000CD530008CD530008CD530008CD53000810
:10005000CD530008CD530008CD530008CD53000800
:10006000CD530008CD530008CD530008CD530008F0
:10007000CD530008CD530008CD530008CD530008E0
:10008000CD530008CD530008CD530008CD530008D0
:10009000CD530008CD530008CD530008CD530008C0
:1000A000CD530008CD530008CD530008CD530008B0
:1000B000CD530008CD530008CD530008CD530008A0
:1000C000CD530008CD530008CD530008CD53000890
:1000D000CD530008CD530008CD530008CD53000880
:1000E000CD530008CD5300083D040008CD5300084F
:1000F000CD530008CD530008CD530008CD53000860
:10010000CD530008CD530008CD530008CD5300084F
:10011000CD530008CD530008CD530008CD5300083F
:10012000CD530008CD530008CD530008CD5300082F
:10013000CD530008CD530008CD530008CD5300081F
:10014000CD530008CD530008CD5300086D040008BE
:10015000CD530008CD530008CD530008CD530008FF
:10016000CD530008CD530008CD530008CD530008EF
:10017000CD530008CD530008CD530008CD530008DF
:08018000CD530008CD53000827
:1001C0002DE9F04F91B0002301931C460DF10F086B
:1001D0000DF12F090DF1170A0DF1070645464246AC
:1001E000334603F8014F434502F8014FF9D10DF1B1
:1001F0001F0700973B4603F8014F4B45FBD14FF0DB
:1002000000033B48ADF83830ADF83030ADF8183069
:10021000ADF83A30ADF83230ADF81A30ADF83C30C8
:10022000ADF83430ADF81C30ADF83E30ADF83630B6
:10023000ADF81E30009705F057F94FF0804001F0FF
:10024000D3FB2C4F034640220CA906A83B6000F0CC
:100250006BFB4FF0804001F0C7FB3B68C01A264B98
:1002600018601968254805F0EBF8254805F0E8F80E
:10027000009FC3461BF8011F224805F0E1F8D34553
:10028000F8D12148009705F0DBF801991F4805F0E7
:10029000D7F81F4805F0D4F8009F17F8011F194838
:1002A00005F0CEF80DF12703BB42F6D1194805F051
:1002B000C7F8194805F0C4F816F8011F114805F0F1
:1002C000BFF84645F8D1134805F0BAF80C4805F0D8
:1002D000B7F815F8011F0B4805F0B2F85545F8D1ED
:1002E000019B09480133019305F0AAF874E700BFA8
:1002F000A0B40008780A00207C0A0020B8B40008E6
:10030000CCB40008D4B40008DCB40008E0B40008A1
:10031000F0B40008F8B40008FCB40008254B2649E6
:100320001B68264AF0B5A1FB0313254E9B09002448
:10033000013B0121F027072589B05360084686F864
:1003400023709460156000F071FF1E4A06925423DA
:1003500005A94FF08040ADF81430ADF81640ADF867
:100360001C408DF81E4001F0D9FA01214FF0804069
:1003700001F082FB0121082000F02EFF01254FF43F
:100380007042032303A9104803928DF811308DF8B1
:1003900012408DF813408DF8105001F03BF90B4BD3
:1003A000009329460A4B0B4A0B4802F0B1F909B0F9
:1003B000F0BD00BF10000020D34D621010E000E03F
:1003C00000ED00E0FFBC0105000C02401800002019
:1003D0001801002074000020800A0020054B1A68D4
:1003E00012B11A68013A1A60034A136801331360A4
:1003F000704700BF740A0020780A002082B0044AC7
:100400000190019B13601368002BFCD102B0704770
:10041000740A0020704700BF704700BFFEE700BFAE
:10042000FEE700BFFEE700BFFEE700BF704700BF6A
:10043000704700BF704700BFFFF7D0BF10B5094C31
:10044000A37A4BB1084A136823F00603136000F047
:1004500013F8204603F03EFA4FF48020BDE8104028
:1004600001F046B8800A002010ED00E0014803F0DA
:1004700045BC00BF800A002039493A4BD1F888209A
:10048000394842F47002C1F888201A68002142F00D
:1004900001021A6099601A6822F0847222F4803294
:1004A0001A6058601A6882B022F480221A60D960FB
:1004B000009101911A6842F480321A601A4603E0F2
:1004C000009BB3F5A06F09D0136803F400330193C8
:1004D000009B01330093019B002BF1D0214B1B6843
:1004E00013F4003318BF01230193019B012B05D0A6
:1004F0001B4B4FF000629A6002B07047194B1B49CA
:100500001A6C1B4842F080521A640A6842F4804216
:100510000A609A689A609A6842F400429A609A68FF
:1005200042F4A0529A6058601A6842F080721A60D1
:100530001A4611680B4B8901FBD50E4A40F2056142
:1005400011609A6822F003029A609A6842F00202EF
:100550009A601A46936803F00C03082BFAD1C7E798
:1005600000ED00E000380240103000240070004030
:1005700008544007003C02401848836803F00C030D
:10058000042B28D0082B09D0154B144A1549926822
:10059000C2F303128A5CD3400B6170474368416821
:1005A00013F4800F436818BF0F4801F03F020CBFDF
:1005B0000B49B0FBF2F1C3F3881308BFB1FBF2F1B2
:1005C00001FB03F2054B5B68C3F3014301335B009E
:1005D000B2FBF3F3D9E7044BD7E700BF0038024082
:1005E0000024F4000000002040787D0100207047C6
:1005F0000020704701207047002070474FF0FF3007
:10060000704700BF58B910B50C46204600F0C0FA3C
:100610000028FAD0207800F06DFA012010BD0020EB
:10062000704700BF064B186838B101446A469142D2
:1006300094BF19604FF0FF30704702481860F4E72C
:10064000040A0020D019002010B5084611461446AF
:1006500000F084FA204610BD70B5851E861D35F861
:10066000021F0A4804F0ECFE0C24298808482141A6
:1006700001F00F01043C04F0E3FE231DF5D10A2034
:1006800004F0F6FEAE42EAD170BD00BF04B500082A
:100690000CB5000870B5044682B0851C00F1100648
:1006A00035F8021C0F4804F0CBFE61880D4804F0B9
:1006B000C7FE638835F8021C0B4803F00F02009256
:1006C000C3F3031301F00F02C1F3031104F0B8FEEA
:1006D00004340A2004F0CCFEA64205F10405DFD163
:1006E00002B070BD10B5000814B5000870B5441E06
:1006F00000F10F06251D14F8011F054804F0A0FEA7
:10070000AC42F8D10A2004F0B3FEA642F2D170BD8B
:1007100010B50008002230B4154641FA02F414F076
:10072000010F4FEA400318BF4540040758BF40007F
:10073000DBB202F101024CBF83F00300C0B2042A15
:10074000EBD105F00F0030BC704700BF0D4B70B40B
:100750001E68002EB8BF0F36831E361112010630F8
:1007600092FBF6F506FB152533F8024F31F81550CC
:10077000984284EA050402F101021C80F0D170BCA9
:10078000704700BF14000020144B154A1B68F0B5D9
:10079000555C0288418887881E111C033603A4B269
:1007A000C38886F4805C5640C5F3C2024FEA022E2D
:1007B00005F0070584F4005284F440542D028CEABD
:1007C00001017A40634086EA0E0669408EEA020221
:1007D0006B40068041808280C380F0BD1400002001
:1007E0004CB20008F0B4114C811E063031F8023FC3
:1007F00003F00F0204EB1336C3F303252244254410
:10080000C3F3031396F8307092F8302095F83060F7
:10081000234442EA073293F8305042EA062343EA7F
:10082000051388420B80E1D1F0BC70474CB2000840
:1008300070B446888588C488310B2A0A230941EAA6
:10084000061142EA052243EA043341808280C380D4
:1008500070BC70472DE9F04F89B00DF1100A0323E9
:10086000DFF8C0E00093A0F10208861DD346CDF862
:1008700004A02B4D009B05F1100A9F000DF10C0CFC
:100880000422C1462C464146002031F8023F3B413C
:1008900003F00F030EEB02121A44B14292F84030FB
:1008A00080EA030002D014F8012BEEE70435AA45D4
:1008B0000CF8010B02D015F8012CE2E7009B9DF823
:1008C0000C009DF80D109DF80E208BF80000013BE8
:1008D0001C4600939DF80F308BF80C30631C8BF88E
:1008E00004108BF808200BF1010BC2D1DDF804A035
:1008F0009AF801209AF800009AF803309AF802104A
:10090000120242EA0032134343EA011329F8023F7C
:10091000B1450AF1040AEBD109B0BDE8F08F00BF80
:100920008DB300084CB200082DE9F04F871E83B04C
:100930000E4600F106083B46EA46694633F8020FC8
:1009400021F8020B9845F9D1DFF8D090C9F80020C2
:10095000002AB8BF0F32111168464FF0000B9BFB05
:10096000F1F201FB12B2038836F812200BF1010BF1
:100970005340BBF1040F20F8023BF0D11425ABF13A
:10098000040421466846FFF7FFFE6846FFF72AFF8A
:10099000BDF80230BDF80600BDF804E0190B41EACD
:1009A00003114FEA1E22030943EA003342EA0E22F2
:1009B00001346846ADF80210ADF80420ADF80630F9
:1009C000FFF748FF5C45DCD1D9F80040002CB8BFE8
:1009D0000F3424114FEA8B03684693FBF4F104FBB8
:1009E0001131028836F8111001334A40AB4220F829
:1009F000022BF2D10BF1040BBBF1240F05F1100512
:100A0000BDD13AF8023B27F8023FB845F9D1684614
:100A1000FFF722FE03B0BDE8F08F00BF14000020F6
:100A2000704700BF704700BF704700BF704700BFEE
:100A3000704700BF704700BF704700BF002070477D
:100A4000A1B1F0B40A4C0B4F01442646002523689F
:100A500010F8012BFA540133B3F5006F08BF2B4691
:100A600088423360F3D10020F0BC7047002070470B
:100A7000280A0020CC110020D9B1F0B40E4A0F4C46
:100A8000166823680E4D0144002701E088420DD00E
:100A900010F8012BEA540133802B0ABF0023236096
:100AA00027609E42F2D10220F0BC70470020F0BCCB
:100AB00070470020704700BFF4100020081100208C
:100AC0007410002021280FD1084B1A680A701A6888
:100AD000120A4A705A888A70DA78CA701A790A71CA
:100AE0005A794A719B798B7100207047340000203D
:100AF00000207047064B19684A1C10B4B2F5006F0D
:100B0000044C08BF002260541A605DF8044B704723
:100B1000280A0020CC1100200378CBB1F0B40146A4
:100B20000446002314F8012F0133002AFAD1094D9D
:100B3000094F18442E462B6811F8014BFC54013321
:100B4000B3F5006F08BF134681423360F3D1F0BCA8
:100B5000704700BF280A0020CC11002091B1F0B4EA
:100B6000094C0A4F014426460025236810F8012B42
:100B7000FA540133B3F5006F08BF2B468842336047
:100B8000F3D1F0BC704700BF280A0020CC11002030
:100B9000094A0A491368096899420AD00849CB5C96
:100BA000037013680133802B08BF002313600120FA
:100BB00070470020704700BFF4100020081100208B
:100BC000741000202DE9F041DFF8A4C0DFF8A48004
:100BD000DCF80060D8F80070B74240D0234D3346AF
:100BE000002442F2014EEA5C0D2A03F101032EFAC1
:100BF00002F128D9002C35D1002342F20144C2541D
:100C0000DCF80010D8F800600133CA18802A04BF4D
:100C100000224B42964222D0AA5C24FA02F10D2A0D
:100C200001F00101EBD881F001060029E7D0C6549C
:100C3000DCF800200E491A447F2A88BF803A0A60F7
:100C40001846BDE8F081C907D4D5802B08BF002322
:100C50009F421E464FF00104C5D1CCF80070002021
:100C6000BDE8F081CCF80060C6E700BF741000203A
:100C7000F410002008110020704700BF12230B80E1
:100C8000004870475000002004230B800048704744
:100C90006400002010B5044C04480A46214601F0C7
:100CA000EDFF204610BD00BF0C11002024B5000848
:100CB0000A4608B5054920B1054801F0DFFF0348A1
:100CC00008BD044801F0DAFF004808BD0C110020FF
:100CD0005CB5000838B500080A4608B5054920B1DA
:100CE000054801F0CBFF034808BD044801F0C6FFEA
:100CF000004808BD0C11002090B5000880B5000820
:100D000010B5044C04480A46214601F0B7FF2046BE
:100D100010BD00BF0C110020A0B5000810B5044C98
:100D200004480A46214601F0A9FF204610BD00BF35
:100D30000C110020ACB50008704700BF704700BF21
:100D400070B50121284C82B0084600F045FA032610
:100D500000232046694602224FF4D8558DF806300C
:100D60008DF8073000958DF804208DF8056000F0AF
:100D700051FC20460A22082100F0DEFC20460A220F
:100D8000092100F0D9FC20460A220B2100F0D4FCF6
:100D900020460A220C2100F0CFFC01254FF480638D
:100DA0006946204600938DF805608DF806508DF851
:100DB000075000F02FFC0A221146204600F0BCFC30
:100DC00029464FF4804000F03FFA2946802000F089
:100DD00011FA29464FF0805000F06EFA284600F0D4
:100DE00087FB02B070BD00BF0000024000B54FF4A9
:100DF000C06083B000F042F801234321032201A820
:100E00008DF804108DF805308DF807308DF8062028
:100E100000F03EF803B05DF804FB00BFC0EB00102B
:100E2000064BC200A3FB0213D21A03EB5202920834
:100E3000002301339A42FCD2704700BF2549922417
:100E4000074A084B02FB00F0A3FB0023C21A03EB86
:100E500052029208002301339A42FCD2704700BF2D
:100E6000C0D401002549922498B700080000002052
:100E7000040A0020040A0020D019002040F0BF60BE
:100E8000024B40F40030D860704700BF00ED00E036
:100E9000C3785BB9037818485A09203203F01F035E
:100EA000012101FA03F340F822307047134BF0B4EC
:100EB000D9684778827804780F4EC943C1F302217C
:100EC000C1F10405EDB20F2307FA05F50B41EDB2B0
:100ED00013402B4304F1604202F561421B01DBB277
:100EE00082F800330378012203F01F015B098A4076
:100EF00046F82320F0BC704700E100E000ED00E080
:100F000021F0604121F07F01014B08439860704758
:100F100000ED00E0044A136919B923EA00001061EA
:100F2000704718431061704700ED00E0044A1368F1
:100F300004280CBF43F0040323F00403136070473C
:100F400010E000E00A4B0B481A68002142F0010251
:100F50001A6099601A6822F0847222F480321A6052
:100F600058601A6822F480221A60D960704700BF66
:100F70000038024010300024024B00221A70187012
:100F8000704700BF0238024082B000230A4A019332
:100F900002E0B3F5A06F08D0136813F4003F019B83
:100FA00003F101030193019BF3D0034B1868C0F3D5
:100FB000404002B0704700BF00380240034A136847
:100FC00023F0F80343EAC000106070470038024085
:100FD000014B1860704700BF00004742064B0022DB
:100FE00001281A701A7005D0042802D105221A703F
:100FF000704770471870704770380240014B186096
:10100000704700BF800E474230B4029C064D40EA54
:10101000046001435B08013B41EA821242EA03405B
:10102000686030BC704700BF00380240014B186058
:10103000704700BF600047420907034B41EA801038
:10104000C3F88400704700BF00380240014B1860AD
:10105000704700BF68004742014B1860704700BFEF
:101060004C004742034A936823F0EC63194308435A
:101070009060704700380240034A936823F0784339
:10108000194308439060704700380240034A936850
:1010900023F0030318439060704700BF00380240FC
:1010A000024B986800F00C00704700BF0038024007
:1010B000034A936823F0F00318439060704700BF21
:1010C00000380240034A936823F4E05318439060C9
:1010D000704700BF00380240034A936823F460431E
:1010E00043EAC000906070470038024010B4214CC1
:1010F000A36803F00C03042B1BD0082B1CD01E4B41
:1011000003601C4A1D499468C4F303140C5DE3405A
:1011100043609468C4F382240C5D23FA04F4846071
:1011200092685DF8044BC2F342328A5CD340C360DC
:101130007047134B0360E4E76368616813F4800F42
:10114000636818BF0E4C01F03F020CBF0A49B4FBA4
:10115000F2F1C3F3881308BFB1FBF2F101FB03F214
:10116000044B5B68C3F3014301335B00B2FBF3F351
:101170000360C6E7003802400024F400900000201D
:1011800040787D0100F44073B3F5407F09D10849F0
:101190008B6820F0704223F4F81322F4407213435A
:1011A0008B60034A136FC0F30B001843106770473E
:1011B00000380240014B1860704700BF3C0E4742A8
:1011C000014B1860704700BF400E4742014B18604A
:1011D000704700BF5C01474229B9054A136B23EAF7
:1011E000000010637047024B1A6B1043186370477E
:1011F0000038024029B9054A536B23EA00005063C6
:101200007047024B5A6B10435863704700380240D6
:1012100029B9054A936B23EA000090637047024B9B
:101220009A6B1043986370470038024029B9054A09
:10123000136C23EA000010647047024B1A6C1043D1
:10124000186470470038024029B9054A536C23EAF4
:10125000000050647047024B5A6C1043586470474A
:101260000038024029B9054A136923EA00001061D9
:101270007047024B1A6910431861704700380240EA
:1012800029B9054A536923EA000050617047024BAF
:101290005A691043586170470038024029B9054A1D
:1012A000936923EA000090617047024B9A691043EA
:1012B000986170470038024029B9054A136A23EA49
:1012C000000010627047024B1A6A104318627047A0
:1012D0000038024029B9054A536A23EA00005062E7
:1012E0007047024B5A6A10435862704700380240F8
:1012F00029B9054A136D23EA000010657047024BB7
:101300001A6D1043186570470038024029B9054A24
:10131000536D23EA000050657047024B5A6D10432D
:10132000586570470038024029B9054A936D23EA91
:10133000000090657047024B9A6D104398657047A6
:101340000038024029B9054A136E23EA00001066EE
:101350007047024B1A6E10431866704700380240FF
:1013600029B9054A536E23EA000050667047024BC4
:101370005A6E1043586670470038024029B9054A32
:10138000137823EA000010707047024B1A7810435C
:10139000187070470D3802404309012B0BD0022B07
:1013A000094B0CBF1B6F5B6F00F01F0023FA00F0AE
:1013B00000F001007047044B1B6800F01F0023FA87
:1013C00000F000F00100704700380240024A536FFD
:1013D00043F080735367704700380240034BDB686B
:1013E000184214BF01200020704700BF003802409F
:1013F000014B1870704700BF0E380240044B05497E
:1014000000221A605A609A60DA605961704700BF22
:10141000003C0140FFFF7F00837933B31C4B02790E
:101420004179F0B407681E68FC4326401E605D6881
:1014300002F18042254002F59E325D6014683C4313
:10144000146004689868E54328409860DA681029B9
:1014500002EA0502DA6013D001F1804303F59E33FE
:101460001A6814431C60F0BC70470379016803F1EB
:10147000804303F59E331A6822EA01021A6070471E
:101480009A6822439A60DA681443DC60F0BC7047C3
:10149000003C014000230C22427103600371837100
:1014A000704700BF024A136918431061704700BFBC
:1014B000003C0140034B5B69034214BF0120002044
:1014C000704700BF003C0140014B5861704700BFAE
:1014D000003C0140054B1A685B69034004D002429E
:1014E00014BF01200020704718467047003C01409F
:1014F000014B5861704700BF003C014008B53C4BB0
:10150000984224D03B4B98422BD03B4B984232D050
:101510003A4B984239D03A4B984240D0394B984296
:1015200047D0394B98424ED0384B984255D0384B23
:10153000984200D008BD01214FF48070FFF792FE61
:1015400000214FF48070BDE80840FFF78BBE0121F9
:101550000846FFF787FE00210120BDE80840FFF79D
:1015600081BE01210220FFF77DFE00210220BDE89F
:101570000840FFF777BE01210420FFF773FE00212A
:101580000420BDE80840FFF76DBE01210820FFF7E9
:1015900069FE00210820BDE80840FFF763BE012175
:1015A0001020FFF75FFE00211020BDE80840FFF784
:1015B00059BE01212020FFF755FE00212020BDE863
:1015C0000840FFF74FBE01214020FFF74BFE0021EE
:1015D0004020BDE80840FFF745BE01218020FFF70D
:1015E00041FE00218020BDE80840FFF73BBE00BF60
:1015F000000002400004024000080240000C0240CB
:10160000001002400014024000180240001C02407A
:101610000020024000222DE9F0471346D1F800E0F7
:1016200001274FF0030C04E00133102B02F10202FA
:1016300029D007FA03F434EA0E05F5D1D0F800807A
:101640000E790CFA02F5ED4308EA0508C0F80080AF
:10165000D0F8009006FA02FA013E4AEA0909012E82
:101660000CFA02F8C0F800900FD9C568CC7925EAC9
:101670000805C560C568944001332C43102BC46035
:1016800002F10202D5D1BDE8F087866891F8059095
:101690003540856086688D7909FA02F949EA0606BF
:1016A0008660466826EA04044460466805FA03F446
:1016B000A4B234434460D8E700234FF6FF720260BF
:1016C000037143718371C371704700BF82B04FF4DF
:1016D00080330193019B0B430193019BC361C16163
:1016E000019BC361C3690193C369019302B0704751
:1016F0000369194214BF012000207047006980B2BD
:10170000704700BF4369194214BF01200020704791
:10171000406980B2704700BF0183704741837047C2
:101720000AB9418370470183704700BF4161704728
:101730004369594041617047CB0800EB830001F0D9
:10174000070110B48900046A0F238B4024EA0303C5
:101750000362036A5DF8044B8A4042EA03010162B6
:10176000704700BF08B5604B984235D0B0F1804F4C
:101770003CD05E4B984243D05D4B98424AD05D4B83
:10178000984251D05C4B984258D05C4B98425FD005
:101790005B4B984266D05B4B98426DD05A4B984257
:1017A00076D05A4B98427FD0594B984200F08880AF
:1017B000584B984200F08E80574B984200D008BD9D
:1017C00001214FF48070FFF777FD00214FF4807006
:1017D000BDE80840FFF770BD01210846FFF77AFD1C
:1017E00000210120BDE80840FFF774BD0121084633
:1017F000FFF762FD00210120BDE80840FFF75CBD56
:1018000001210220FFF758FD00210220BDE8084019
:10181000FFF752BD01210420FFF74EFD00210420F7
:10182000BDE80840FFF748BD01210820FFF744FD4F
:1018300000210820BDE80840FFF73EBD012110202F
:10184000FFF73AFD00211020BDE80840FFF734BD46
:1018500001212020FFF730FD00212020BDE80840B5
:10186000FFF72ABD01210220FFF734FD00210220ED
:10187000BDE80840FFF72EBD01214FF48030FFF78F
:1018800029FD00214FF48030BDE80840FFF722BD5C
:1018900001214FF40030FFF71DFD00214FF400300F
:1018A000BDE80840FFF716BD01214FF48020FFF787
:1018B00011FD00214FF48020BDE80840FFF70ABD6C
:1018C00001214020FFF7F8FC00214020BDE808403E
:1018D000FFF7F2BC01218020FFF7EEFC0021802001
:1018E000BDE80840FFF7E8BC0000014000040040EC
:1018F00000080040000C00400010004000140040B0
:101900000004014000400140004401400048014003
:1019100000180040001C004000200040224A0388BC
:1019200090429BB212D002F5806290420ED0B0F18C
:10193000804F0BD0A2F58032904207D002F5806232
:10194000904203D002F58062904203D14A8823F08E
:1019500070031343154A90421ED002F580629042F4
:101960001AD00A8970B423F440730F4C4E680D8866
:101970009BB21343A0420380C662058506D00C4B80
:10198000984203D00123838270BC70478B7A038610
:101990000123838270BC704703800B884A68C2624F
:1019A000038501238382704700000140001000403E
:1019B0000004014000234FF0FF32426003800381A6
:1019C00043808372704700BF01858282704700BFE9
:1019D000038823F070031B041B0C1943018070471C
:1019E00041627047C1627047406A7047008D80B2A3
:1019F000704700BF038829B923F002031B041B0CA6
:101A0000038070479BB243F002030380704700BF1E
:101A1000038829B923F004031B041B0C03807047BF
:101A20009BB243F004030380704700BF038829B9C9
:101A300023F080031B041B0C038070479BB243F010
:101A400080030380704700BF038823F008031B0452
:101A50001B0C038003889BB219430180704700BFB1
:101A6000038823F440731B041B0C038003889BB280
:101A700019430180704700BF038829B923F001038F
:101A80001B041B0C038070479BB243F001030380CF
:101A9000704700BFF0B5048CB1F80CC04B880F88BC
:101AA0001A4E24F001042404240C0484058CB0F89C
:101AB00004E0048B25F0020524F073022D042D0CA4
:101AC0004CEA030312042B43120CB0429BB21FFAE0
:101AD0008EF442EA070208D00D4DA84205D089686D
:101AE0008480028341630384F0BDCE890F8A4D8ACE
:101AF00023F00803334324F440748E883D4323F0DD
:101B000004032C433343A4B2E9E700BF00000140C3
:101B100000040140F0B5058C0C88B1F80CC0B1F898
:101B200002E01E4E25F010052D042D0C0584028CBC
:101B30008788058B22F020031B0425F4E6421B0C4A
:101B4000120443EA0C13120C43EA0E1342EA042275
:101B5000B0429BB2BDB294B208D0114A904205D0B7
:101B60008A688580048382630384F0BD23F0800249
:101B7000CB890F8A8E8892B242EA03124FF6BF7366
:101B8000134025F440654A8A45EA870543EA06136F
:101B900045EA82059BB2ADB2E2E700BF000001401A
:101BA00000040140F0B5058CB1F80CC0B1F802E0BA
:101BB0000C881D4F25F480752D042D0C0584028C96
:101BC0008688858B22F400731B0425F073021B0C9E
:101BD00043EA0C23120443EA0E23120CB8429BB2D0
:101BE000B5B244EA020408D0104A904205D08A688F
:101BF00085808483C2630384F0BD23F40062CB89B3
:101C00000F8A8E8892B242EA03224FF6FF331340C6
:101C100025F440554A8A45EA071543EA062345EA72
:101C200002159BB2ADB2E2E70000014000040140A2
:101C3000028CB1F802C022F480521204120C2DE979
:101C4000F041B1F80C80B1F800E00284058C87887F
:101C5000828B124E25F4005422F4E6432404240C13
:101C60001B0444EA08341B0C44EA0C3443EA0E23F8
:101C7000B042A4B2BAB29BB209D0094DA84206D074
:101C800089688280838301640484BDE8F0810D8AC1
:101C900022F4804242EA851292B2F1E7000001404C
:101CA000000401400023038043808380836083819C
:101CB000C38103824382704710B4048C0123A4B211
:101CC0008B4024EA030321F00804038418307CB11C
:101CD0000439C1F34E0148F6FF730C5823400B50F2
:101CE00012020B585DF8044B92B21A430A50704727
:101CF00049084FF68F730C5823400B500B585DF872
:101D0000044B1A430A507047416370478163704720
:101D1000C163704701647047038B23F070031B0499
:101D20001B0C194301837047038B23F4E0431B040E
:101D30001B0C43EA012189B201837047838B23F096
:101D400070031B041B0C194381837047838B23F49E
:101D5000E0431B041B0C43EA012189B281837047D5
:101D6000038B23F008031B041B0C194301837047EA
:101D7000038B23F400631B041B0C43EA012189B28B
:101D800001837047838B23F008031B041B0C19434A
:101D900081837047838B23F400631B041B0C43EA8D
:101DA000012189B281837047038B23F004031B0454
:101DB0001B0C194301837047038B23F480631B04BE
:101DC0001B0C43EA012189B201837047838B23F006
:101DD00004031B041B0C194381837047838B23F47A
:101DE00080631B041B0C43EA012189B28183704785
:101DF000038B23F080031B041B0C194301837047E2
:101E0000038BC3F30E0343EA012189B201837047B8
:101E1000838B23F080031B041B0C194381837047C1
:101E2000838BC3F30E0343EA012189B28183704798
:101E3000038C23F002031B041B0C1943018470471D
:101E4000038C23F008031B041B0C19430184704707
:101E5000038C23F020031B041B0C43EA011189B2FD
:101E600001847047038C23F080031B041B0C43EA9E
:101E7000011189B201847047038C23F400731B04A1
:101E80001B0C43EA012189B201847047038C23F4BF
:101E900000631B041B0C43EA012189B201847047D3
:101EA000038C23F400531B041B0C43EA013189B259
:101EB0000184704710B4048C01238B40A4B224EA3F
:101EC00003040484038C5DF8044B8A4013439BB2E3
:101ED0000384704710B4048C04238B40A4B224EA1A
:101EE00003040484038C5DF8044B8A4013439BB2C3
:101EF000038470470B88F0B5002B32D0042B57D0E9
:101F0000082B00F08380028C4F88B1F804E00E8922
:101F1000CD8822F480521204120C0284848B028C2D
:101F200024F4407122F4005309055B04090D5B0C95
:101F300041EA0E2143EA073341EA06319BB243F4FA
:101F4000805389B281830384828B22F4406212041D
:101F5000120C8283838B9BB243EA05239BB283835B
:101F6000F0BD028C4E888D880B89CC8822F001024E
:101F70001204120C0284028B018C92B222F0F30242
:101F800021F00A0142EA0313090446F001029BB260
:101F9000090C2B43114303830184038B23F00C03AF
:101FA0001B041B0C0383038B9BB223430383F0BDF1
:101FB000058C4F888E88B1F808E0CC8825F0100198
:101FC0000904090C0184028B018C22F440731B0567
:101FD0001B0D8AB243EA0E3322F0A0029BB242EA02
:101FE000071243EA062392B29BB242F01002038327
:101FF0000284038B23F440631B041B0C0383038BB9
:102000009BB243EA04239BB20383F0BD068C4F8846
:102010008D880A89CC8826F480710904090C018412
:10202000818B038C89B29BB221F0F30123F42063EE
:1020300041EA021243EA072392B29BB243F480734F
:102040002A4382830384838B23F00C031B041B0C21
:102050008383838B9BB21C438483F0BD00230122C6
:10206000828003804380C38003817047B1F802C03F
:102070000B88F0B5B1F804E0BCF1000F0CBF0224EE
:102080000024BEF1010F0CBF02250125002B4BD00F
:10209000038C0E89C98823F010031B041B0C0384D6
:1020A000028B078C22F440731B05BAB21B0D43EA66
:1020B000063322F0A0029BB242EA0C1243EA0E233E
:1020C00092B29BB242F0100203830284038B23F48A
:1020D00040631B041B0C0383038B9BB243EA012365
:1020E0009BB20383038C23F001031B041B0C0384AA
:1020F000028B078C92B222F0F302BFB242EA0613BF
:1021000027F00A029BB242F001022B4314430383DF
:102110000484038B23F00C031B041B0C0383038B2D
:102120009BB219430183F0BD038C0F89CE8823F045
:1021300001031B041B0C0384018B038C89B221F067
:10214000F30123F00A0341EA07111B044CF00102DA
:1021500089B21B0C13434EEA010EA0F818E0038469
:10216000038B23F00C031B041B0C0383038B9BB218
:1021700033430383038C23F010031B041B0C0384E1
:10218000028B018C22F440731B051B0D8AB243EABB
:10219000073322F0A0029BB242F0100243EA05236B
:1021A00042EA041403830484038B23F440631B0476
:1021B0001B0C0383038B9BB243EA0626B6B206834D
:1021C000F0BD00BF406B7047806B7047C06B7047BD
:1021D000006C7047038B23F00C031B041B0C038360
:1021E000038B9BB219430183704700BF038B23F419
:1021F00040631B041B0C0383038B9BB243EA012146
:1022000089B20183704700BF838B23F00C031B044A
:102210001B0C8383838B9BB219438183704700BF60
:10222000838B23F440631B041B0C8383838B9BB23F
:1022300043EA012189B28183704700BFF0B54B8822
:10224000B1F800E08F88CE880D894C898A894EEAE2
:1022500003033B4333432B43234313439BB2A0F875
:102260004430F0BD0023038043808380C38003811A
:1022700043818381704700BFB0F8443021B9C3F374
:102280000E03A0F8443070476FEA43436FEA5343AC
:102290009BB2A0F844307047838829B923F0040327
:1022A0001B041B0C838070479BB243F004038380A4
:1022B000704700BF838829B923F001031B041B0C5E
:1022C000838070479BB243F001038380704700BF57
:1022D00081827047038A194214BF01200020704791
:1022E000C94389B201827047038A828911EA0300D7
:1022F00092B203D0114214BF01200020704700BFEA
:10230000C94389B2018270470A43A0F84820704748
:1023100083899BB21AB923EA01018181704719436D
:1023200081817047FFF7F4BF838829B923F0080340
:102330001B041B0C838070479BB243F0080383800F
:10234000704700BF038923F007031B041B0C0381A4
:10235000704700BF038923F070031B041B0C194353
:10236000018103899BB243F007030381704700BFDB
:10237000602930B4048C24D024F001042404240CFB
:102380000484048B058CA4B224F0F304ADB244F0B1
:10239000010425F00A0544EA031345F001049BB249
:1023A000224303830284038923F070031B041B0C64
:1023B0000B43038103899BB243F00703038130BCC5
:1023C000704724F010042404240C0484048B058C2E
:1023D00024F440742405ADB2240D25F0A00544F486
:1023E000807445F0100544EA033345EA02129BB2BB
:1023F00092B203830284D6E710B4048942EA03232D
:10240000E4B223439BB21943018103895DF8044B75
:1024100023F077031B041B0C43F077030381704701
:1024200010B4048942EA0323E4B223439BB2194364
:10243000018103895DF8044B9BB243F4804303811F
:10244000704700BF038923F070031B041B0C194362
:1024500001817047838823F070031B041B0C838069
:1024600083889BB219438180704700BF038923F0A2
:1024700007031B041B0C038103899BB219430181D1
:10248000704700BF038923F080031B041B0C0381EA
:1024900003899BB219430181704700BF10B40489BE
:1024A000E4B221430A4342EA032399B201815DF871
:1024B000044B704770B40689048B058C24F4407477
:1024C00024F00304ADB225F0220526F0070624040B
:1024D0002A433604240C360C44F4807442EA031375
:1024E000314344F001049AB201810483028470BC38
:1024F000704700BF838829B923F080031B041B0C9D
:10250000838070479BB243F080038380704700BF95
:10251000A0F85010704700BF10B5D0F8E43504465D
:102520001B699847032384F81231002010BD00BFB7
:1025300008B50422D0F8E43580F81221DB6898470A
:10254000002008BD08B5D0F8E035DB6903B1984735
:10255000002008BD08B5D0F8E0351B6A9847002078
:1025600008BD00BF08B5D0F8E0355B6A9847002089
:1025700008BD00BF002310B519460446402201F0F3
:102580009FFA802120460023402201F099FA01227F
:10259000D4F8E43584F81221A0785B6898470020CD
:1025A00010BD00BF10B582B06946044600F03AF98C
:1025B0009DF8001001F01F03012B18D010D3022B3F
:1025C00007D001F08001204601F00EFB002002B090
:1025D00010BD6946204600F0EBFA002002B010BDA5
:1025E0006946204600F05AF9002002B010BD694645
:1025F000204600F0C3FA002002B010BD38B50446F2
:1026000029B990F81131022B0CD0002038BDD0F838
:10261000E0355B69002BF8D090F81221032AF4D141
:102620009847F2E7D0F83421D0F820319A4210D9F7
:10263000C1780129D0F82411A2EB030208BFC91800
:10264000C0F8342108BFC0F8241192B200F0A2F8FB
:10265000DBE7D0F83821B2FBF3F503FB15255DB9B4
:10266000934209D8D0F83C319A4205D22A4600F06C
:1026700091F8C4F83C51C8E7D4F8E035DB681BB1E9
:1026800094F81221032A03D0204600F0B3F8BCE7E7
:1026900020469847F8E700BF10B5044629B990F8DE
:1026A0001131032B0CD0002010BDD0F8E0359B6910
:1026B000002BF8D090F81221032AF4D19847F2E7C2
:1026C000D0F88C33D0F87823934212D9C1780129FD
:1026D000D0F87C13A3EB020304BF8918C0F87C1365
:1026E0009A4228BF1A46C0F88C3392B200F06AF8BA
:1026F000D9E7D0F8E0351B691BB190F81221032A05
:1027000003D0204600F066F8CDE79847F9E700BF10
:102710002DE9F0410446164698460D46069FFEF701
:102720000FFB20462946C4F8E085C4F8E475C4F8D8
:10273000E86501F079F9D4F8E4351B68984720463C
:10274000BDE8F041FEF752BB00207047D0F8E035FD
:1027500010B504461B689847D4F8E4359B68984741
:10276000002010BD08B5D0F8E0355B689847002020
:1027700008BD00BF38B5134602250A46C0F83831F7
:10278000C0F8343180F81151002101F00BFA00201B
:1027900038BD00BF08B513460A46002101F002FA11
:1027A000002008BD38B5134603250A46C0F890330B
:1027B000C0F88C3380F81151002101F0CDF90020D0
:1027C00038BD00BF08B513460A46002101F0C4F920
:1027D000002008BD10B5002304220446194680F8E5
:1027E00011211A4601F0DEF9204601F02FF80020F1
:1027F00010BD00BF10B5002305220446194680F81D
:1028000011211A4601F0A8F9204601F01FF8002016
:1028100010BD00BF01EB810100EBC100B0F88803DF
:10282000704700BF90F8C8350B7090F8C9354B70F1
:1028300090F8CB2590F8CA3503EB02234B8090F833
:10284000CD2590F8CC3503EB02238B8090F8CF2573
:1028500090F8CE3503EB02239BB20122CB80C0F867
:102860003C3180F81121704710B591F90030002BF0
:10287000044609DBCB883BB1002101F0B5F92046C5
:10288000BDE8104000F0E2BF2046802101F0ACF925
:102890002046BDE8104000F0D9BF00BF70B54B78AE
:1028A00082B00C460546092B0CD8DFE803F032460F
:1028B0000B590B05700B87128B881BB9CB88002B2B
:1028C00000F08E8021462846FFF7CEFF002002B0A0
:1028D00070BD8978A64E01293170F3D890F8123175
:1028E000022B00F09880032BECD1002900F03581F9
:1028F00090F81011012900F02881FFF733FF31789B
:1029000085F810112846FFF721FF2846FFF762FFE0
:10291000DCE790F812310122023B93424FF00301B1
:10292000D0D8D0F81431002B57D1914B9A6028465B
:1029300001229049FFF71EFFC8E790F81231023BD1
:10294000012BBFD84B88012BC0D1D0F8E035002235
:102950009B68C0F8142198472846FFF73BFFB5E76E
:102960004B88012B00F0EB80022BAFD18B8813F04A
:10297000FF0FABD101691B0A4A68013B1046042BCB
:1029800000F29480DFE803F0979C8EA6A1004A88AD
:10299000130A013B062B95D801A151F823F000BF83
:1029A000852A0008472A0008352A0008C52800089B
:1029B000C5280008C5280008C5280008CA88012ABB
:1029C00080D190F81231022B21D0032B7FF47AAF03
:1029D00000F58871FFF7CEFE78E7654B9960A6E7B2
:1029E00090F812318E78032B06F07F063FF46AAF21
:1029F00080F81361314601F041F92846FFF7EAFEFD
:102A0000002E00F0A680022385F812315EE75A49B5
:102A1000FFF7B0FE5AE7002900F097800121032359
:102A200080F8101180F81231FFF790FE2846FFF76A
:102A3000D1FE4BE7D2B2052A3FF644AFDFE802F001
:102A4000776F675F574FD0F8E03580789B6A0DF15C
:102A50000601984702234370C5F8EC05BDF806301F
:102A6000002B3FF433AFE288002A3FF42FAF9342AC
:102A700028BF134601461A462846ADF80630FFF730
:102A800079FE23E7D0F8E83580781B680DF1060160
:102A90009847E288402A03D095F81231012BDDD106
:102AA0000823E1E7032363F3061002464A60284641
:102AB000FFF790FE0AE7012363F306100246F5E7ED
:102AC000022363F306100246F0E7052363F30610C2
:102AD0000246EBE7042363F306100246E6E7D0F86C
:102AE000E83580789B690DF106019847B6E7D0F884
:102AF000E83580785B690DF106019847AEE7D0F8BC
:102B0000E83580781B690DF106019847A6E7D0F8F3
:102B1000E8358078DB680DF1060198479EE7D0F82C
:102B2000E83580789B680DF10601984796E7D0F864
:102B3000E83580785B680DF1060198478EE7D0F89C
:102B4000E025C0F81431936898472846FFF742FE05
:102B5000BCE6012385F81231B8E6022380F8101193
:102B600080F81231FFF7FEFD2846FFF733FEADE691
:102B7000080A0020100A00200C0A002038B590F83E
:102B80001231032B03D10B79012B0D4603D9FFF72B
:102B90006BFE002038BDD0F8E0359B6804469847AE
:102BA000EB88002BF5D12046FFF714FEF1E700BFBC
:102BB00070B54B788A88012B0C460546D6B224D0D6
:102BC00019D3032B15D190F81231022B17D0032BF8
:102BD0003ED14B8823B9730602D0314601F004F888
:102BE000D5F8E03521469B68284698472846FFF7E8
:102BF000F1FD002070BD90F81231022B14D1720645
:102C0000F7D0314600F0F0FFF3E790F81231022BD5
:102C1000F5D0032B1CD14B88002BEAD17106E5D0EF
:102C2000314600F0FFFFDBE7032B11D1130613D46D
:102C300006EB860600EBC60696F87233B3B90D4B69
:102C40000022DA60284602220B49FFF793FDD0E705
:102C5000FFF70AFE002070BD06F07F0606EB860631
:102C600000EBC60696F81A31002BE8D0014B012282
:102C7000DA60E7E7080A0020140A002000B30378AE
:102C800030B4F3B10446002314F8015F0133DBB222
:102C9000002DF9D15B000233DCB2032513800C70E8
:102CA0004D7004785CB1022300255A1CD2B2CC547A
:102CB0008D5410F8014F0233DBB2002CF5D130BC3B
:102CC000704702242346E8E710B5074C2068FF2828
:102CD00007D0064A064B12689B6806499847FF23AF
:102CE0002360002010BD00BFD0000020180A002083
:102CF0003C000020C411002043230B800048704793
:102D0000D400002070B51E4C6368052B03D05A1CFC
:102D10006260002070BD237A0022012B6260F8D02F
:102D2000E5682169B5F5006F1FD08D4223D025D904
:102D3000C5F500616161AAB2D0F8EC35B3F839305D
:102D40008B420CD21D44C91AE56061610D49012511
:102D50000A448121257200F025FF002070BD0D443A
:102D60000026E5608BB26661F0E7E26019B11546B6
:102D7000491B6161E0E700232372CAE7AAB2F7E7C3
:102D8000180A0020CC11002001EB810138B500EBBE
:102D9000C101094D094BB1F888131B690446284647
:102DA0009847D4F8EC352A46B3F840302046012144
:102DB00000F0D2FE002038BD841100203C0000202D
:102DC00070B50B7813F060040D46064617D0202C22
:102DD00010D1CC88002C3DD01B0629D4224B234A8D
:102DE0004D7815601C60224621490024FFF7DAFC6B
:102DF000204670BDFFF738FD0224204670BD4B7899
:102E00000A2B22D00B2B0ED0062BF6D14B881B0A97
:102E1000212B03D1CA883A2A28BF3A2230461549C5
:102E2000FFF7A8FCE9E78B78DBB90F4B9C61E4E77F
:102E3000114B0F499B68687822469847EA880C49ED
:102E40003046FFF797FC0024D7E701220B49FFF734
:102E500091FCD2E7084B48789B6822462146984768
:102E6000CBE7FFF701FDC8E7180A0020D0000020DB
:102E7000C4110020E60000203C000020300A0020A1
:102E800010B58121044600F04BFE2046012100F0E0
:102E900047FE8221204600F043FE024B5B689847C4
:102EA000002010BD3C000020D0F8EC2538B50446C9
:102EB00002238121B2F8392000F002FED4F8EC356B
:102EC0002046B3F840200121022300F0F9FD2046FE
:102ED00003230822822100F0F3FD094B094A022155
:102EE000002519715D7113689847D4F8EC35064ACE
:102EF000B3F840302046012100F02EFE284638BDB0
:102F0000500000203C0000208411002038B51249F8
:102F10000B7A012B01D0002038BD4C69CCB1D0F820
:102F2000EC35CA68B3F839309C420CD8A318002598
:102F3000CB6092B223464D6108490A44812100F0DA
:102F400031FE002038BD9D18E41A4C61CD6092B26C
:102F5000F2E70C72002038BD180A0020CC110020C6
:102F600030B5054683B0002303200193FDF756FFDB
:102F70002B68134C1A69019206E0FDF74FFF2B688E
:102F8000013C1A69019218D0019A002A4FF00300FF
:102F9000F3DA01990A4A41F001010191019919619D
:102FA0001969019103E019690191013A02D001996F
:102FB000C907F8D40320FDF731FF002003B030BD6E
:102FC000400D030030B4C4786CB900EB82000333C9
:102FD0009B10D0F8D05006D02246013251F8040B95
:102FE00028609342F9D1002030BC70470332921020
:102FF00030B4D0F8D05009D00846002301332C68F3
:1030000040F8044B9A42F9D101EB8201084630BCEA
:10301000704700BF2DE9F041012440230022A14266
:1030200084708380C2705AD0002942D04178C26037
:103030004FF4006303610678002967D04FF460679E
:103040004FF488684FF4806C02F5106303EB411E67
:1030500000F1140400F1500144F8043F03F5007539
:1030600020339E4541F8045FF6D1C0F814C0C0F883
:10307000CC80CEB12336B600841900F18C0102F564
:10308000A06341F8043FA14203F12003F9D106F106
:103090004001014402F5805200F1CC0343F8042FB3
:1030A000994202F58052F9D1C0F80C710020BDE8B8
:1030B000F0814FF4A063194CC3804FF0060E0C262C
:1030C000174FDFF86C80DFF86CC0164BC1722246D8
:1030D000067080F801E07146C4600361B4E74FF008
:1030E000040E4FF4A072022308264FF0A044C172D0
:1030F000C2800372067080F801E0714622460A4FD2
:10310000DFF83480DFF834C0084BE5E70A464FF4B7
:1031100060674FF488684FF4806CA6E700000440B5
:10312000000E044000080440000E0050000800504B
:1031300040040440000404404004005000040050D7
:1031400038B5037A012B04462FD050F80C2FD368E2
:1031500043F04003D360FFF703FF237A627A032B27
:1031600014BF4FF434134FF43C130AB143F48013EB
:10317000E26814209363FDF763FEE368217ADA685E
:10318000032908BF42F48032DA60227A032A38D059
:10319000E378012B07D1E3689D68052262F34405BB
:1031A00045F020059D60002038BDC268417A936BD0
:1031B000002565F3104309B143F480139363D3688A
:1031C00023F4800323F0500343F010036FF3C30391
:1031D0006FF3C7136FF351436FF3D343D36004F11D
:1031E0000C00FFF7BDFEE378012BDCD1052363F370
:1031F0004405E36845F020059D60E378012BCAD0C3
:10320000D1E71D6B012262F39B656FF3D7552D2229
:1032100045F0805562F316451D63C820FDF710FE8A
:10322000E36845F400051D63C820FDF709FEAFE71C
:10323000C268936843F0010393600020704700BFA9
:10324000C268936823F0010393600020704700BFB9
:1032500000B583B000230193019A0E4B42F0200287
:103260000192019A61F38A120192C168019A0A617E
:103270000A69019203E00A690192013B02D0019AB6
:103280009206F8D40320FDF7C9FD002003B05DF8D5
:1032900004FB00BF400D030000B583B00023019381
:1032A000019A0C4B42F010020192C168019A0A6126
:1032B0000A69019203E00A690192013B02D0019A76
:1032C000D206F8D40320FDF7A9FD002003B05DF875
:1032D00004FB00BF400D0300C26808B5D368012994
:1032E0006FF35D736FF39E7308D009B943F08043A9
:1032F000D3603220FDF7A4FD002008BD43F0005349
:10330000F6E700BFC368586900F00100704700BFCE
:10331000C368586900F0010080F00100704700BFE9
:10332000C368586900F00100704700BFC36858695E
:103330009B691840704700BFC3685868704700BF5A
:103340000269136861F301031360704710B4C26827
:103350000C4C00234FF0FF3193615161516051617A
:103360009461C07891695DF8044B984208BF1023BE
:1033700043F4701343F4605343F008030B430020FD
:103380009361704700080080F8B5D0F80C310169EE
:1033900000221A600B6862F3CC230B600446C07AEB
:1033A000012849D010212046FFF752FF2046FFF7A1
:1033B00073FF256900224FF0FF332A616A61AB6118
:1033C000EA6163783BB3174604F11401FF2651F814
:1033D000043F18680028ACBF00204FF090401860F0
:1033E0001F619E60637801329342F0D89BB1002246
:1033F000174604F15001FF2651F8043F18680028D1
:10340000ACBF00204FF0904018601F619E60637851
:1034100001329342F0D82B6943F480732B61E37837
:10342000012B04D1144B402262F359432B632046F5
:10343000FFF78CFF0020F8BD0E68E0681346C0223D
:10344000802562F30F034FF4800265F31F4346F0BB
:10345000030665F30F024FF4A0770E6045628262A7
:10346000C0F8043167F30F036FF31F43C0F808314E
:10347000C0F80C3196E700BF0301010003699B68A7
:10348000C3F34103022B06D003D8012B01D0032044
:103490007047022070470120704700BF03698169AF
:1034A0009A680868C2F34102022A06BF032262F347
:1034B0000A006FF30A0008605A6842F480725A608A
:1034C0000020704770B44B78012B4FF000041FD0E0
:1034D0000D7800EB85020123AB40526D63F31F446E
:1034E00013681D040DD48E68CD78C98866F30A036D
:1034F00065F3934361F3995343F0805343F40043DE
:1035000013600269D36923430020D36170BC704704
:103510000A7800EB8205934063F30F04AA69DFE7A2
:1035200030B44B780022012B144612D00B7800EBFC
:103530008305012199406D6D61F31F4401696FF3AB
:10354000CF322A60CB6923EA04030020CB6130BC70
:103550007047097800EB81058B4063F30F04AD6978
:10356000ECE700BFF0B54A780B78012A3BD000EBBE
:1035700083034A695D6D8E682B682C69DAB1324429
:10358000013AB2FBF6F2C2F3090762F3DC4406FB30
:1035900007F666F312042C61C278012A14D0CA78A7
:1035A000012A1AD00A7800EB820043F00443426DEE
:1035B00013600020F0BD012266F3120462F3DC44C4
:1035C0002C61C278012AEAD10A780C6900EB8202E8
:1035D000526D5461CA78012AE4D14A79002A4FD049
:1035E00043F00053DEE700EB83034D699E693368C7
:1035F0003469002D3FD08F6891F803E065F3120421
:10360000EA19013ABEF1010FB2FBF7F262F3DC44B2
:1036100008BF6EF35E743461C278012A3AD0CA786A
:10362000012A30D04DB106690F78746B0122BA407F
:1036300022437263CA78012A25D00A7800EB8202FD
:1036400043F0044392691360CB78012BB1D1C27867
:10365000002AAED10C78ABB200EB840003339B1090
:10366000D0F8D040A5D0C96851F8040B20600132D1
:103670009342F9D19DE765F3120462F3DC44CAE793
:1036800043F080538EE702699268D20509D443F073
:103690000053D2E70A780C6900EB82029269546108
:1036A000C8E743F08053C8E7F0B44A78012A82B0F3
:1036B00041D00B784C6900EB83035A6D1368156990
:1036C0000095F4B18E689DF800509DF802404E615F
:1036D000012767F3C40466F306058DF800508DF8E2
:1036E0000240009C1461C278012A1DD00A7800EBC8
:1036F000820043F00443426D1360002002B0F0BC2E
:1037000070478F689DF800509DF80240012666F3CF
:10371000C40467F306058DF800508DF80240009C44
:103720001461C278012AE1D10A780C6900EB8202A7
:10373000526D5461DAE784694D6923682669009601
:1037400035B38A68954237D99DF800504A6162F3D3
:1037500006058DF800509DF80220012565F3C4028E
:103760008DF80220009A2261C278012A1DD043F010
:1037700004432360C378002BBFD14B69002BBCD01E
:1037800000690978426B01238B4013434363B4E71C
:103790009DF800709DF8026065F3060762F3C406A9
:1037A0008DF800708DF80260DCE70A780D6900EB97
:1037B000820292695561DAE79DF8002065F30602FE
:1037C0008DF80020C7E700BF4B78012B0B7800EB8A
:1037D000830006D0426D136843F400131360002089
:1037E000704782691368002BF6DA43F0804343F494
:1037F00000131360002070474B78CA78012B0B78B8
:1038000000EB8300A2F102020CBF8069406D0368E7
:10381000012A6FF3555398BF43F080530360002093
:10382000704700BF03699869DB691840000C704756
:1038300000EB810103694A6D90685B69184070472D
:1038400003699869DB69184080B2704710B401239E
:1038500083B04FF0000263F3C402C0240023182198
:103860000093436D8DF802208DF803408DF8001011
:10387000009A1A61C278012A06D100F5B960586130
:103880004FF0802219681A6003B05DF8044B70474E
:10389000D0F81431EBB103699A68D20719D510B585
:1038A000827A42B1D0F80C21D0F80C116FF34102AA
:1038B0006FF300020A605A68044642F001025A603F
:1038C0000520FDF7BDFA2269536823F00103536018
:1038D00010BD7047837A63B103699B68DB0708D525
:1038E000D0F80C31D0F80C216FF341036FF30003D3
:1038F0001360704770B543780122064680F81221A4
:1039000073B1143006F150010023FF2251F8044F27
:1039100050F8045FAA60A260747801339C42F5D825
:10392000336900224FF0FF311A6130465A61DA6183
:103930009961FFF7B1FC30461021BDE87040FFF7F8
:1039400087BC00BF4B78012B0B7800EB830010D0B5
:10395000436D1B68C3F307439A0607D413F0020FA5
:1039600014BF4FF400504FF4405070474FF4805054
:10397000704783691B68C3F30743990605D413F0A6
:10398000020F14BF2020302070471020704700BF66
:10399000F0B44C78012C0D4615D0097800EB81016C
:1039A000B2F5805F4E6D33681F4619D0B2F5005FE7
:1039B00013D0B2F5405F1ED012B962F3CF373B4649
:1039C0003360F0BC70470C7800EB8404102AA669C1
:1039D00033681F4624D0202A05D143F00063EFE767
:1039E00043F40013ECE7302AE6D1990213D5002006
:1039F0006871A16904E09A020DD500206871496DD3
:103A0000EB780A68023B60F35552012B98BF42F0F5
:103A100080520A60D5E743F0044343F40043CFE704
:103A2000F0BCFFF7D1BE00BFF8B50646FFF7F2FACB
:103A300074780125002186F8125186F8131164B3B9
:103A4000084633463246402782F81811A2F81E1164
:103A50000131A14282F8195182F81B01C2F820718C
:103A6000C2F82401C2F82C0102F12802ECD1002294
:103A70001146402083F87023A3F876230132A24236
:103A800083F8711383F87313C3F87803C3F87C13B6
:103A9000C3F8841303F12803ECD13046FFF7D0FBC1
:103AA0003046FFF74DFB00213046FFF715FC30464E
:103AB000FFF76AFC3046BDE8F840FFF7B9BB00BF2E
:103AC00070B50C0617D401EB8104E400051900263B
:103AD00004F55C7485F87013C5F8782385F87333A2
:103AE000011985F87163022B04BF00230B71FFF7E6
:103AF000E9FC002070BD01F07F0505EB8504E400C2
:103B0000061904F58C71012486F81851C6F8202195
:103B100086F81B31A6F81E51014486F81941E2E7E8
:103B2000CAB208B513060DD401EB810300EBC30341
:103B300003F55C73D20919705A701946FFF7F0FC4F
:103B4000002008BD01F07F0101EB810300EBC303FE
:103B500003F58C73EEE700BF70B501F07F0606EB4E
:103B60008604E4000519002185F87063C5F8881300
:103B700085F87113C5F87C23C5F88433C378012B0D
:103B800004F55C7408BFF6B200EB040108BFC5F889
:103B900080231EB1FFF7E6FC002070BDFFF784FD17
:103BA000002070BDF8B501F07F0606EB8604E40046
:103BB0000519014604F58C740127C5F82421C5F8C0
:103BC0002821002285F81861C5F82C31214485F898
:103BD0001971C5F830211EB1FFF7C4FC0020F8BDF3
:103BE000FFF762FD0020F8BDCAB2130610B50FD46E
:103BF00001EB810300EBC30303F55C73D2090124DD
:103C000019705A709C701946FFF7DEFD002010BD38
:103C100001F07F0101EB810300EBC30303F58C731B
:103C2000ECE700BFCAB2130610B50FD401EB810355
:103C300000EBC30303F55C73D209002419705A70BA
:103C40009C701946FFF7D8FD204610BD01F07F019A
:103C500001EB810300EBC30303F58C73ECE700BFBA
:103C600008B50B0603D4FFF717FB002008BD01F0D1
:103C70007F01FFF7EDFA002008BD00BF02690020B8
:103C8000136861F30A1003431360704702695368B5
:103C90006FF3410353600320FDF7D2B80269536804
:103CA00043F0020353600320FDF7CAB80B0607D4A4
:103CB00001EB810100EBC10101F55C71FFF742BE30
:103CC00001F07F0101EB810100EBC10101F58C7175
:103CD000FFF738BE0B0607D401EB810100EBC101F1
:103CE00001F55C71FFF754BE01F07F0101EB81012A
:103CF00000EBC10101F58C71FFF74ABE2DE9F84FC9
:103D00000646FFF705FB10B90020BDE8F88F3046E6
:103D1000FFF70CFB81460028F6D0C0F3074808F0F7
:103D2000080303F0FF00002B40F0628118F0040F3D
:103D300040F0FC805FFA89F4A10702D5F368022203
:103D40005A61B9F1000FC0F2D680C9F307252A07DE
:103D500000F1B180270700F1A480E1067AD4EA06D9
:103D600016D4AB065DD4C9F3074919F0100F4DD135
:103D700019F0200F01D1BDE8F88FA34B1B68304626
:103D80001B6A9847F3684FF400125A610120F2E76A
:103D900032695368002723F00103536039463046E7
:103DA000FFF756FA73788BB106F1140006F1500153
:103DB0003B46FF22AE4651F8044F50F8045FAA601C
:103DC000A26074780133A342F5D3754633690124A8
:103DD0004FF0FF3264F30F079A610F212F2264F333
:103DE0001F47DF6159611A611A686FF30A121A607E
:103DF0003046FFF72BFD844BF2681B684FF480516F
:103E00001B695161304698472046AAE77E4B1B68E4
:103E10003046DB699847F3684FF480125A610120FD
:103E2000A6E73046FFF73AFBF3683046DC68FFF759
:103E300025FB032800F0AA81012140220523B1704F
:103E4000B28063F38D24F3684FF40052DC600120EC
:103E50005A6188E7F3689A6922F010029A611C6A35
:103E6000C4F34342022A04F00F0700F04F81062AF0
:103E700011D107EB870706EBC707082206F5B961E2
:103E80003046FFF7B3F8D7F88833C4F30A141C445C
:103E9000C7F88843F3689A6942F010029A610120DA
:103EA0005DE7594B1B683046DB689847F36808228A
:103EB0005A61012051E7544B1B6830465B699847B3
:103EC0003269F36891684FF400625A61B37A83B142
:103ED000CB070ED5D6F80C314C491A6842F00102D6
:103EE0001A601A6842F003021A600B6943F0060375
:103EF0000B6101202EE7B37A43B1D6F80C31D6F826
:103F00000C216FF341036FF30003136032693E49E4
:103F10005368096823F00103536030468B69984762
:103F2000F3684FF000425A6101200EE73046FFF778
:103F300087FC8046002800F0E78006F11807354628
:103F40004FF0000B2AE05C0702D53A680423936027
:103F5000180702D53A6808239360D90602D53A6853
:103F6000102393609A0602D53A68202393605C067A
:103F700002D53A6840239360980703D53B68022234
:103F80009A601346DB097FD15FEA58080BF1010BF9
:103F900007F1040705F1280500F0B68018F0010FBD
:103FA000F2D031695FFA8BFA08694B6B06EB8A0233
:103FB00023FA0AF39269DB019268DBB203431340F0
:103FC000DBB2DA07BFD5104A4B6B3C6812680120A0
:103FD00000FA0BFE23EA0E034B635368A0605146C0
:103FE00030469847F478012C00F0C2800123AAE7FC
:103FF0003046FFF717FC0446002800F0838006F1E6
:104000005405B34600270BE0A000002000ED00E0BF
:10401000640807F1010705F104050BF1280B71D0C5
:10402000E007F5D55FFA87FA51463046FFF700FC06
:10403000C0B2C10712D52B6801209860F278824285
:1040400000F08D80564B1B6851461B6830469847E0
:1040500096F803A0BAF1010F76D00120820702D5AD
:104060002B6802209860430703D52B6804229A60CE
:1040700010460107CCD54A4B1B6830469B689847D1
:104080002B6808209860C3E7D5F82CE1D5F830C13B
:10409000D5F820213868CCEB0E0494428369214680
:1040A00028BF114603319BB2B3EB910F27D9E645E8
:1040B00025D9BEF1000F22D0D5F8241106E0D5F89D
:1040C0002C3193421BD99C1AD5F82021944228BF49
:1040D0001446A3B252463046FEF774FFD5F82411B9
:1040E000D5F8302121442244C5F82411C5F83021E7
:1040F0003868836903349BB2B3EB940FDFD8802315
:10410000836041E7012011E6012013E647F6F072D3
:104110002240002A3FF4BFAE07EB870706EBC70734
:10412000C4F30A142246D7F87C133046FEF75EFF2C
:10413000D7F87C33D7F8882323441444C7F87C335A
:10414000C7F88843F368A6E6002F86D196F81131A8
:10415000052B82D13046FFF779FB50467EE71A697E
:10416000DBF87833C2F312029B1ACBF8883369E785
:10417000BBF1000F7FF43AAF96F81131042B7FF4B6
:1041800035AF3046FFF762FB2346DCE600214FF4F3
:1041900000720923B170B28063F38D2453E600BF2F
:1041A000A00000200000000000000000000000004F
:1041B00000000000000000000000000000000000FF
:1041C00090F800F06DE9024520F007016FF0000C57
:1041D00010F0070491F820F040F049804FF00004FF
:1041E0006FF00700D1E9002391F840F000F10800DA
:1041F00082FA4CF2A4FA8CF283FA4CF3A2FA8CF312
:104200004BBBD1E9022382FA4CF200F10800A4FA78
:104210008CF283FA4CF3A2FA8CF3E3B9D1E90423CC
:1042200082FA4CF200F10800A4FA8CF283FA4CF303
:10423000A2FA8CF37BB9D1E9062301F1200182FABD
:104240004CF200F10800A4FA8CF283FA4CF3A2FAC3
:104250008CF3002BC6D0002A04BF04301A4612BAD1
:10426000B2FA82F2FDE8024500EBD2007047D1E9D4
:10427000002304F00305C4F100004FEAC50514F063
:10428000040F91F840F00CFA05F562EA05021CBF34
:1042900063EA050362464FF00004A9E7000000004E
:1042A00001F0FF01102A2BDB10F0070F08D010F8E7
:1042B000013B013A8B422DD010F0070F42B3F6D1EB
:1042C000F0B441EA012141EA014122F007047FF004
:1042D00000070023F0E80256083C85EA010586EA5B
:1042E000010685FA47F5A3FA87F586FA47F6A5FA97
:1042F00087F68EB9EED1F0BC01F0FF0102F00702A3
:1043000032B110F8013B013A83EA010313B1F8D14D
:104310000020704701387047002D06BF354603382E
:10432000073815F0010F07D1013015F4807F02BF67
:10433000013015F4C03F0130F0BC0138704700BFB8
:10434000844641EA000313F003036DD1403A41D3A0
:1043500051F8043B40F8043B51F8043B40F8043B5F
:1043600051F8043B40F8043B51F8043B40F8043B4F
:1043700051F8043B40F8043B51F8043B40F8043B3F
:1043800051F8043B40F8043B51F8043B40F8043B2F
:1043900051F8043B40F8043B51F8043B40F8043B1F
:1043A00051F8043B40F8043B51F8043B40F8043B0F
:1043B00051F8043B40F8043B51F8043B40F8043BFF
:1043C00051F8043B40F8043B51F8043B40F8043BEF
:1043D000403ABDD2303211D351F8043B40F8043B8F
:1043E00051F8043B40F8043B51F8043B40F8043BCF
:1043F00051F8043B40F8043B103AEDD20C3205D39F
:1044000051F8043B40F8043B043AF9D2043208D096
:10441000D2071CBF11F8013B00F8013B01D30B8808
:1044200003806046704700BF082A13D38B078DD0E6
:1044300010F003038AD0C3F10403D21ADB071CBFB8
:1044400011F8013B00F8013B80D331F8023B20F822
:10445000023B7BE7043AD9D3013A11F8013B00F85B
:10446000013BF9D20B7803704B7843708B788370E3
:1044700060467047000000000000000000000000DF
:10448000A2EB0300704700BF02780B78012A28BF17
:104490009A42F5D16DE9044540EA0104CDE902678D
:1044A0006FF0000C4FEA447212B380EA010414F07A
:1044B000070F6AD100F0070420F0070004F003059D
:1044C00021F007014FEAC505F0E8042314F0040FBA
:1044D000F1E804670CFA05F462EA040266EA0406ED
:1044E0000AD063EA0403624667EA0407664603E00B
:1044F000F0E80423F1E8046782FA4CF582EA060446
:10450000A4FA8CF46CBB83FA4CF583EA0705A5FA90
:104510008CF595B950E9022351E9026782FA4CF50E
:1045200082EA0604A4FA8CF483FA4CF583EA0705C0
:10453000A5FA8CF52543DBD09CB92DBAB5FA85F4E4
:1045400024F0070427FA04F1DDE9026723FA04F3F3
:1045500003F0FF0001F0FF01FDE80445A0EB0100BE
:10456000704724BAB4FA84F424F0070426FA04F15C
:10457000DDE9026722FA04F202F0FF0001F0FF0118
:10458000FDE80445A0EB0100704714F0030F3CD197
:1045900010F0030428D150F8082B51F8083B82FA98
:1045A0004CF582EA0305A5FA8CF55DB950F8042CA8
:1045B00051F8043C82FA4CF582EA0305A5FA8CF521
:1045C000002DE8D02DBAB5FA85F424F0070423FABB
:1045D00004F122FA04F202F0FF0001F0FF01FDE80D
:1045E0000445A0EB010070474FEAC40420F003002B
:1045F00050F8082B21F0030151F8083B0CFA04F4A1
:1046000062EA040263EA0403C9E710F003041AD063
:10461000A1EB040120F00300E40750F8042B06D0BE
:104620000FD28B785FFAA2F4E41A06D12BB1CB78C3
:104630005FFAB2F4E41A00D11BB920465DF8104BC2
:10464000704701F1040150F8042BCC0721F003015D
:1046500051F8043B48D824D222F07F4482FA4CF52A
:1046600094EA1325A5FA8CF50AD165B951F8043BF3
:1046700084EA0204B4EB036F0ED150F8042BEBE78D
:104680004FEA132355E035F07F454DD10878FDE81A
:104690000445C0F1000070474FEA126203F0FF03C7
:1046A00047E002EA1C4482FA4CF594EA1345A5FA65
:1046B0008CF50AD165B951F8043B84EA0204B4EBE5
:1046C000034F0CD150F8042BEBE74FEA134330E0D3
:1046D00015EA1C4528D10B884FEA124229E04FEA1F
:1046E000124203EA1C4324E002F0FF0482FA4CF574
:1046F00094EA1365A5FA8CF50AD165B951F8043B23
:1047000084EA0204B4EB032F09D150F8042BEBE741
:104710004FEA13630DE015F0FF0F05D10B684FEA68
:10472000122223F07F4304E04FF00000FDE804452F
:10473000704712BA1BBA82FA4CF482EA0304A4FA54
:104740008CF5B5FA85F402FA04F203FA04F34FEAA1
:104750001260FDE80445A0EB1360704781F0004152
:1047600002E000BF83F0004330B54FEA41044FEA56
:10477000430594EA050F08BF90EA020F1FBF54EAF1
:10478000000C55EA020C7FEA645C7FEA655C00F08D
:10479000E2804FEA5454D4EB5555B8BF6D420CDD5E
:1047A0002C4480EA020281EA030382EA000083EAE1
:1047B000010180EA020281EA0303362D88BF30BD81
:1047C00011F0004F4FEA01314FF4801C4CEA1131D7
:1047D00002D0404261EB410113F0004F4FEA033336
:1047E0004CEA133302D0524263EB430394EA050FC1
:1047F00000F0A780A4F10104D5F1200E0DDB02FA30
:104800000EFC22FA05F2801841F1000103FA0EF2C3
:10481000801843FA05F359410EE0A5F120050EF189
:10482000200E012A03FA0EFC28BF4CF0020C43FABA
:1048300005F3C01851EBE37101F0004507D54FF0C7
:10484000000EDCF1000C7EEB00006EEB0101B1F517
:10485000801F1BD3B1F5001F0CD349085FEA30005D
:104860004FEA3C0C04F101044FEA445212F5800F68
:1048700080F09A80BCF1004F08BF5FEA500C50F105
:10488000000041EB045141EA050130BD5FEA4C0CE8
:10489000404141EB010111F4801FA4F10104E9D171
:1048A00091F0000F04BF01460020B1FA81F308BF68
:1048B0002033A3F10B03B3F120020CDA0C3208DD34
:1048C00002F1140CC2F10C0201FA0CF021FA02F10F
:1048D0000CE002F11402D8BFC2F1200C01FA02F17F
:1048E00020FA0CFCDCBF41EA0C019040E41AA2BFA4
:1048F00001EB0451294330BD6FEA04041F3C1CDA6C
:104900000C340EDC04F11404C4F1200220FA04F08B
:1049100001FA02F340EA030021FA04F345EA030135
:1049200030BDC4F10C04C4F1200220FA02F001FAF7
:1049300004F340EA0300294630BD21FA04F0294679
:1049400030BD94F0000F83F4801306BF81F4801112
:104950000134013D4EE77FEA645C18BF7FEA655C85
:1049600029D094EA050F08BF90EA020F05D054EA57
:10497000000C04BF1946104630BD91EA030F1EBF5C
:104980000021002030BD5FEA545C05D14000494160
:1049900028BF41F0004130BD14F580043CBF01F553
:1049A000801130BD01F0004545F0FE4141F4700139
:1049B0004FF0000030BD7FEA645C1ABF1946104614
:1049C0007FEA655C1CBF0B46024650EA013406BF15
:1049D00052EA033591EA030F41F4002130BD00BFD4
:1049E00090F0000F04BF0021704730B54FF4806491
:1049F00004F132044FF000054FF0000150E700BF12
:104A000090F0000F04BF0021704730B54FF4806470
:104A100004F1320410F0004548BF40424FF000015D
:104A20003EE700BF42004FEAE2014FEA31014FEAA0
:104A300002701FBF12F07F4393F07F4F81F06051EF
:104A4000704792F0000F14BF93F07F4F704730B55E
:104A50004FF4607401F0004521F0004120E700BFF1
:104A600050EA010208BF704730B54FF000050AE078
:104A700050EA010208BF704730B511F0004502D579
:104A8000404261EB41014FF4806404F132045FEA7B
:104A9000915C3FF4DCAE4FF003025FEADC0C18BF20
:104AA00003325FEADC0C18BF033202EBDC02C2F116
:104AB000200300FA03FC20FA02F001FA03FE40EAA8
:104AC0000E0021FA02F11444C1E600BF70B54FF0A8
:104AD000FF0C4CF4E06C1CEA11541DBF1CEA13558A
:104AE00094EA0C0F95EA0C0F00F0DEF82C4481EAF2
:104AF000030621EA4C5123EA4C5350EA013518BF12
:104B000052EA033541F4801143F4801338D0A0FBFE
:104B100002CE4FF00005E1FB02E506F00042E0FBAB
:104B200003E54FF00006E1FB03569CF0000F18BFB1
:104B30004EF0010EA4F1FF04B6F5007F64F5407459
:104B400004D25FEA4E0E6D4146EB060642EAC621EC
:104B500041EA55514FEAC52040EA5E504FEACE2E59
:104B6000B4F1FD0C88BFBCF5E06F1ED8BEF1004F5C
:104B700008BF5FEA500E50F1000041EB045170BDD8
:104B800006F0004646EA010140EA020081EA03011C
:104B9000B4EB5C04C2BFD4EB0C0541EA045170BD18
:104BA00041F480114FF0000E013C00F3AB8014F192
:104BB000360FDEBF002001F0004170BDC4F10004DB
:104BC000203C35DA0C341BDC04F11404C4F120055C
:104BD00000FA05F320FA04F001FA05F240EA0200B7
:104BE00001F0004221F0004110EBD37021FA04F6ED
:104BF00042EB06015EEA430E08BF20EAD37070BDA7
:104C0000C4F10C04C4F1200500FA04F320FA05F005
:104C100001FA04F240EA020001F0004110EBD37007
:104C200041F100015EEA430E08BF20EAD37070BD77
:104C3000C4F1200500FA05F24EEA020E20FA04F350
:104C400001FA05F243EA020321FA04F001F00041FF
:104C500021FA04F220EA020000EBD3705EEA430E70
:104C600008BF20EAD37070BD94F0000F0FD101F09F
:104C70000046400041EB010111F4801F08BF013CD8
:104C8000F7D041EA060195F0000F18BF704703F016
:104C90000046520043EB030313F4801F08BF013D9D
:104CA000F7D043EA0603704794EA0C0F0CEA135559
:104CB00018BF95EA0C0F0CD050EA410618BF52EA13
:104CC0004306D1D181EA030101F000414FF0000019
:104CD00070BD50EA410606BF1046194652EA430627
:104CE00019D094EA0C0F02D150EA013613D195EA9B
:104CF0000C0F05D152EA03361CBF104619460AD1E3
:104D000081EA030101F0004141F0FE4141F47001EC
:104D10004FF0000070BD41F0FE4141F4780170BDDC
:104D200070B54FF0FF0C4CF4E06C1CEA11541DBF41
:104D30001CEA135594EA0C0F95EA0C0F00F0A7F843
:104D4000A4EB050481EA030E52EA03354FEA013170
:104D500000F088804FEA03334FF0805545EA131383
:104D600043EA12634FEA022245EA111545EA10654B
:104D70004FEA00260EF000419D4208BF964244F1E2
:104D8000FD0404F5407402D25B084FEA3202B61A01
:104D900065EB03055B084FEA32024FF480104FF4D5
:104DA000002CB6EB020E75EB030E22BFB61A754649
:104DB00040EA0C005B084FEA3202B6EB020E75EBDC
:104DC000030E22BFB61A754640EA5C005B084FEA44
:104DD0003202B6EB020E75EB030E22BFB61A754611
:104DE00040EA9C005B084FEA3202B6EB020E75EB1C
:104DF000030E22BFB61A754640EADC0055EA060EDD
:104E000018D04FEA051545EA16754FEA06164FEA1F
:104E1000C30343EA52734FEAC2025FEA1C1CC0D1CB
:104E200011F4801F0BD141EA00014FF000004FF058
:104E3000004CB6E711F4801F04BF01430020B4F119
:104E4000FD0C88BFBCF5E06F3FF6AFAEB5EB030CD1
:104E500004BFB6EB020C5FEA500C50F1000041EBCE
:104E6000045170BD0EF0004E4EEA113114EB5C049B
:104E7000C2BFD4EB0C0541EA045170BD41F480116E
:104E80004FF0000E013C90E645EA060E8DE60CEA76
:104E9000135594EA0C0F08BF95EA0C0F3FF43BAF93
:104EA00094EA0C0F0AD150EA01347FF434AF95EA4A
:104EB0000C0F7FF425AF104619462CE795EA0C0F2E
:104EC00006D152EA03353FF4FDAE1046194622E7FB
:104ED00050EA410618BF52EA43067FF4C5AE50EAD5
:104EE00041047FF40DAF52EA43057FF4EBAE12E7C5
:104EF0004FF0FF3C06E000BF4FF0010C02E000BFA6
:104F00004FF0010C4DF804CD4FEA410C7FEA6C5C88
:104F10004FEA430C18BF7FEA6C5C1BD001B050EA2B
:104F2000410C0CBF52EA430C91EA030F02BF90EA16
:104F3000020F0020704710F1000F91EA030F58BFD5
:104F4000994208BF90422CBFD8176FEAE37040F037
:104F5000010070474FEA410C7FEA6C5C02D150EAD5
:104F6000013C07D14FEA430C7FEA6C5CD6D152EA90
:104F7000033CD3D05DF8040B704700BF8446104655
:104F800062468C461946634600E000BF01B5FFF754
:104F9000B7FF002848BF10F1000F01BD4DF808ED24
:104FA000FFF7F4FF0CBF012000205DF808FB00BFF5
:104FB0004DF808EDFFF7EAFF34BF012000205DF84F
:104FC00008FB00BF4DF808EDFFF7E0FF94BF01209C
:104FD00000205DF808FB00BF4DF808EDFFF7CEFF9D
:104FE00094BF012000205DF808FB00BF4DF808EDDC
:104FF000FFF7C4FF34BF012000205DF808FB00BFAD
:105000004FEA410212F5001215D211D56FF47873F0
:10501000B3EB625212D94FEAC12343F0004343EA93
:10502000505311F0004F23FA02F018BF404270476E
:105030004FF00000704750EA013005D111F00040F8
:1050400008BF6FF0004070474FF00000704700BF8E
:1050500053B94AB9002908BF00281CBF4FF0FF31DF
:105060004FF0FF3000F07EB9ADF1080C6DE904CED1
:1050700000F006F8DDF804E0DDE9022304B0704733
:105080002DE9F0478C460E460446089D002B50D172
:105090008A4217466CD9B2FA82FEBEF1000F0BD0DD
:1050A000CEF1200420FA04F401FA0EF644EA060CCC
:1050B00002FA0EF700FA0EF44FEA1749220CBCFB75
:1050C000F9F01FFA87F809FB10C642EA064600FB12
:1050D00008F3B34209D9F61900F1FF3280F02281BA
:1050E000B34240F21F8102383E44F61AA2B2B6FB28
:1050F000F9F309FB136642EA064403FB08F8A045EE
:1051000009D9E41903F1FF3280F00A81A04540F289
:105110000781023B3C44C8EB040443EA0040002101
:10512000002D62D024FA0EF400232C606B60BDE8E1
:10513000F0878B4207D9002D55D0002185E841002A
:105140000846BDE8F087B3FA83F1002940F090806B
:10515000B34202D3824200F2F880841A66EB03065F
:105160000120B446002D40D085E81010BDE8F0873E
:1051700012B90127B7FBF2F7B7FA87FEBEF1000FAD
:1051800035D1F31B4FEA17481FFA87FC0121B3FB07
:10519000F8F0220C08FB103642EA06460CFB00F33E
:1051A000B34207D9F61900F1FF3202D2B34200F23E
:1051B000CE801046F61AA2B2B6FBF8F308FB1366CF
:1051C00042EA06440CFB03FCA44507D9E41903F1A9
:1051D000FF3202D2A44500F2B5801346CCEB0404A2
:1051E00043EA00409CE729462846BDE8F087CEF117
:1051F000200106FA0EF307FA0EF720FA01F94FEA3A
:105200001748CE4049EA0309B6FBF8FA4FEA1944B9
:1052100008FB1A661FFA87FC44EA06430AFB0CF2F5
:105220009A4200FA0EF40AD9DB190AF1FF3180F034
:1052300087809A4240F28480AAF1020A3B449B1A7A
:105240001FFA89F9B3FBF8F108FB113349EA03436C
:1052500001FB0CF69E4207D9DB1901F1FF326BD23C
:105260009E4269D902393B449B1B41EA0A418EE7C1
:10527000C1F1200E22FA0EF48B40234320FA0EF7E0
:1052800006FA01F44FEA134C26FA0EF63C43B6FB3D
:10529000FCF9270C0CFB19661FFA83F847EA06464F
:1052A00009FB08F7B74202FA01F200FA01FA08D93D
:1052B000F61809F1FF3041D2B7423FD9A9F10209EE
:1052C0001E44F61BA0B2B6FBFCF40CFB146640EACD
:1052D000064704FB08F8B84507D9FF1804F1FF306A
:1052E00028D2B84526D9023C1F4444EA0940C8EBFD
:1052F0000707A0FB02894F4544464E4614D329D0E8
:1053000065B3BAEB040367EB060707FA0EFECB4062
:10531000CF404EEA030385E888000021BDE8F0870E
:105320001346F8E61046E0E6B8EB020469EB030624
:105330000138E5E70446D8E7114695E78146C0E71E
:105340008A467CE7023B3C4448E708460AE70238C5
:105350003E442FE7C245E7D33E46D1E72946BDE8A4
:10536000F08700BF704700BF08B5FAF7D7FF044BBE
:105370001B680021986800F0BFF8FAF721FF00BF12
:1053800070050020002103E00B4B5B5843500431B3
:105390000A480B4B42189A42F6D30A4A02E000230D
:1053A00042F8043B084B9A42F9D3FBF765F800F04A
:1053B0000FF8FFF7D9FF704798B7000800000020EA
:1053C000040A0020040A0020D0190020FEE7000093
:1053D00070B50F4E0F4D761BB61018BF002405D0C8
:1053E000013455F8043B9847A642F9D10A4E0B4DBB
:1053F000761BFBF70FF8B61018BF002406D0013457
:1054000055F8043B9847A642F9D170BD70BD00BF66
:1054100098B7000898B7000898B7000898B7000830
:105420000EB400B582B003AB816853F8042B01932E
:1054300000F0E6F802B05DF804EB03B0704700BF7F
:105440000FB400B5074983B004AB086853F8042BC8
:105450008168019300F0D4F803B05DF804EB04B068
:10546000704700BF70050020826804F005BA00BFD5
:10547000034B1B6801469A68184604F0FDB900BF4B
:1054800070050020F0B5054689B008460C46FEF7C9
:1054900097FEAB6B134F04940126441C04A902220F
:1054A00003940590AC680697079601910292ABB100
:1054B000A3899A0406D4626E43F4005322F4005286
:1054C000A38162662146284601AA02F047FF002810
:1054D00014BF4FF0FF300A2009B0F0BD284602F09B
:1054E000E5FDE5E7C4B50008024B01461868FFF783
:1054F000C9BF00BF7005002000290CBF0222002296
:105500004FF4806300F000B82DE9F041394C256874
:105510000E46044690461F4615B1AB6B002B3BD0A0
:10552000B8F1020F2ED8002F2CDB2146284602F0BE
:10553000ADFCA18900236360A3610B0626D421F092
:10554000830189B2B8F1020FA18129D0002E35D094
:10555000B8F1010F04D141F001017B42A181A361A7
:1055600089B201F00800244BEB6380B2266026610B
:10557000676148B111F0030F18BF0027A760002032
:10558000BDE8F0814FF0FF30BDE8F0812169284689
:1055900002F0FCFDA189D2E7284602F087FDBFE7B3
:1055A000002004F1430341F0020100250122A18102
:1055B000A560236023616261BDE8F081002F08BF10
:1055C0004FF48067384603F049F9064628B1A189AF
:1055D00041F0800189B2A181BAE74FF4806003F005
:1055E0003DF9064618B9A1894FF0FF30D9E74FF4CD
:1055F0008067ECE770050020E17E000800000000F5
:105600002DE9F04FBDB01C468A460592054606902E
:1056100003F0A4F8036811931846FEF7D1FD0A942D
:1056200012901DB1AB6B002B00F02381BAF80C2057
:1056300093B299040AD4DAF8641042F4005321F4C6
:105640000051AAF80C30CAF864109BB21A0740F156
:10565000DB80DAF81020002A00F0D68003F01A036D
:105660000A2B00F0DF809FED9C7B00238DED0E7BED
:10567000109321932093139307932CAB1F93994678
:10568000059C2378002B00F0F880252B02D1F4E054
:10569000252B03D014F8013F002BF9D1059BE51A07
:1056A00095B1209B219A0599C9F8001001332A442D
:1056B000072BC9F804502192209300F3C18009F10F
:1056C0000809079B2B4407932378002B00F0C18027
:1056D00000231A468DF85F30194608930393631C24
:1056E00018464FF0FF3B63785E460130A3F120047B
:1056F000582C00F21884DFE814F0BC0316041604DA
:10570000C303160416041604160416041604C20075
:105710006F0316045D00CE001604E900F500F500E5
:10572000F500F500F500F500F500F500F5001604AC
:105730001604160416041604160416041604160499
:1057400016040501670216046702160416041604FF
:105750001604A30216041604B10216041604160455
:1057600016041604F502160416042403160416047F
:105770001604160416041604160416041604160459
:10578000D803C903670267026702D203C90316047C
:105790001604EC031604F503660363007303160492
:1057A000790316049D0316041604A603089C0A93A5
:1057B00064420894039B43F004030393037894E743
:1057C00005900A98002104688DF85F10071D039862
:1057D000302378228E428DF86030B3464FF00005BA
:1057E0008DF8612040F00203C0F2BB8320F08003FB
:1057F00043F00203039354EA05030A9700F08683FB
:105800000F460C923648CEE25146069801F08AFACD
:10581000002841F01680BAF80C3003F01A030A2B66
:105820007FF421AFBAF90E30002BFFF61CAF2346F0
:10583000059A0698514601F03FFA3DB0BDE8F08F59
:105840001FAA5146069804F011FB48B90DF1B009A2
:1058500037E7219B23B106981FAA514604F006FBA7
:10586000BAF80C30590600F1EC8707983DB0BDE856
:10587000F08F069802F01AFCD8E6059C24E70A9DF2
:105880002B6808931C46002C2B4603F104038DDB88
:105890000A93037829E703782A2B00F1010501F028
:1058A000BB81A3F13004092C98BF002601F20081CE
:1058B00015F8013B06EB860604EB4606A3F130041F
:1058C000092CF5D946EAE67628460FE7039B43F014
:1058D00080030393037808E7000000000000000045
:1058E0000CB60008A3F1300400231D4610F8013B5C
:1058F00005EB850504EB4505A3F13004092CF5D92A
:105900000895F3E60C93B3460590002A41F0B68162
:10591000039B43F010030393039B9B0640F10F8509
:105920000A9F073727F00707D7E9002307F1080187
:105930000A9114461D46002A73F10003C0F2158631
:10594000BBF1000F9DF85F70C0F24F85039B23F001
:105950008003039354EA050300F0E981002D08BF9A
:105960000A2CC0F0E9812CAE204629460A220023E9
:10597000FFF76EFB303206F8012D20462946002342
:105980000A22FFF765FB04460D4654EA0503EBD1F6
:105990002CAB9B1B0993099B5B45B8BF5B460493EB
:1059A00000230D9317B1049B01330493039B13F061
:1059B00002030B9302D0049B02330493039B13F066
:1059C000840840F0DB82089B049A9D1A002D40F366
:1059D000D582102D2199209A9C4F21DD4B46102411
:1059E000B146069E04E0103D102D03F1080315DDBD
:1059F00001321031072A219120921F605C60F2DD94
:105A00001FAA5146304604F031FA00287FF428AF2F
:105A1000103D102D2199209A2CABE9DC4E46994679
:105A200001326C18072A21942092C9F80070C9F835
:105A3000045000F331849DF85F7009F1080977B1D3
:105A4000209B013301340DF15F010122072B2194CA
:105A5000209389E8060000F3AA8309F108090B9B4B
:105A60006BB1209B0133023418A90222072B219429
:105A7000209389E8060000F3A68309F10809B8F12C
:105A8000800F00F0E882099BC3EB0B07002F37DD86
:105A9000102F209BDFF8C08125DD42464FF0100B10
:105AA000B046069D164604E0103F102F09F1080984
:105AB00016DD01331034072B2194209389E8400828
:105AC000F2DD1FAA5146284604F0D0F900287FF4E1
:105AD000C7AE103F102F219C209B0DF1B009E8DCD0
:105AE00032464646904601333C44072B219420938E
:105AF000C9F80080C9F8047000F34D8309F1080962
:105B0000039BDD0500F13C82209B0999C9F80060E8
